:020000040800F2
:1000000080690020B10200085B540008854D00089B
:1000100059540008ED0B000841650008000000007D
:10002000000000000000000000000000F1010008D6
:10003000BB0C0008000000004D020008B956000883
:10004000CB020008CB020008CB020008CB0200085C
:10005000CB020008CB020008CB020008CB0200084C
:10006000CB020008CB020008CB020008F10B00080D
:10007000FD0B0008CB020008CB020008CB020008F1
:10008000CB020008CB020008FD0A0008CB020008E2
:10009000CB020008C10C0008CB020008CB0200080C
:1000A0005D57000869570008CB020008CB02000822
:1000B00075570008CB020008CB020008CB020008ED
:1000C000CB020008CB020008CB020008CB020008DC
:1000D000CB02000809650008CB020008CB0200082B
:1000E000CB020008CB020008CB020008CB020008BC
:1000F000CB020008CB020008CB020008CB020008AC
:10010000CB020008CB02000881570008CB02000890
:10011000CB020008CB020008CB0200088D57000874
:10012000CB020008CB020008CB020008CB0200087B
:10013000CB020008CB020008CB020008CB0200086B
:10014000CB020008CB020008CB020008CB0200085B
:10015000CB020008CB020008CB020008CB0200084B
:10016000CB020008CB020008CB020008CB0200083B
:10017000CB020008CB020008CB020008CB0200082B
:10018000CB020008CB020008CB020008CB0200081B
:10019000CB02000800000000CB020008CB020008E0
:1001A000CB020008CB020008CB020008CB020008FB
:1001B000CB020008CB020008CB020008CB020008EB
:1001C000CB020008CB020008CB020008CB020008DB
:1001D000CB020008CB020008DFF810D000F078FB5B
:1001E0000048004789A00008AFF300808069002024
:1001F0002C4B19680868B0E8F04F80F30988BFF30A
:100200006F8F4FF0000080F31188704700000000EE
:1002100008480068006880F308884FF0000080F309
:10022000148862B661B6BFF34F8FBFF36F8F00DFE4
:1002300000BF00BF08ED00E0DFF80C00016841F4EA
:1002400070010160704700BF88ED00E0EFF30980A6
:10025000BFF36F8F134B1A681EF0100F08BF20ED0D
:10026000108A20E9F04F106009B44FF0500080F37D
:100270001188BFF34F8FBFF36F8F0CF0FFFD4FF06E
:10028000000080F3118809BC19680868B0E8F04FD5
:100290001EF0100F08BFB0EC108A80F30988BFF37E
:1002A0006F8F704768000020EFF3058070470000F3
:1002B0000648804706480047FEE7FEE7FEE7FEE700
:1002C000FEE7FEE7FEE7FEE7FEE7FEE74D57000824
:1002D000D90100082DE9F05F0546002092469B46B3
:1002E00088460646814640241BE02846414647464C
:1002F000224600F0A6F853465A46C01A914110D340
:1003000011461846224600F08DF82D1A67EB0108B9
:100310004F4622460120002100F084F817EB000927
:100320004E41201EA4F10104DFDC484631462A4636
:100330004346BDE8F09F2DE9F0410024061B254609
:1003400071F1000605DA01240027D0EB070067EB06
:100350000101161E73F1000605DA0027D2EB070231
:10036000012567EB0303FFF7B5FF86460E461746E8
:100370009C46AC4204D00025D0EB050E65EB01068F
:1003800024B10020D2EB000760EB030C704631462D
:100390003A466346BDE8F08140EA01039B0703D07B
:1003A00009E008C9121F08C0042AFAD203E011F8B4
:1003B000013B00F8013B521EF9D27047D2B201E076
:1003C00000F8012B491EFBD270470022F6E710B55A
:1003D00013460A4604461946FFF7F0FF204610BDB3
:1003E00010B5044604E00B7800F8013B03B1491C4A
:1003F000521EF8D2204610BD30B50B4601460020F3
:100400002022012409E021FA02F59D4205D303FAD6
:1004100002F5491B04FA02F52844151EA2F1010257
:10042000F1DC30BD202A04DB203A00FA02F1002082
:1004300070479140C2F1200320FA03F31943904022
:100440007047202A04DB203A21FA02F0002170478D
:1004500021FA02F3D040C2F120029140084319462C
:1004600070470029A8BF7047401C490008BF20F012
:100470000100704710B4B0FA80FC00FA0CF050EAAA
:10048000010404BF10BC704749B1CCF1200421FA2B
:1004900004F411FA0CF118BF012121430843A3EB26
:1004A0000C01CB1D4FEA00614FEA102042BF002033
:1004B00010BC704700EBC35010440029A4BF10BC0F
:1004C0007047401C490008BF20F0010010BC704775
:1004D00010B541000CD0C0F3C751962908DC7E2925
:1004E00009DC06DB410204D000F0004040F07E5001
:1004F00010BD002010BDC1F19604C4F1200100FA26
:1005000001F1E040FFF7ADFFA04010BDF0B400F0F6
:10051000004221F0004120F00040CE0DC30DC1F398
:10052000160141F40001C0F316004C42154640F498
:100530000000761E09E010EB440002D582F0004274
:1005400040428842F7D840005B1EB342F9DA18B146
:10055000F0BC0021FFF78EBF2846F0BC70472DE9A4
:10056000FE4F804681EA0300C00F0C46009021F048
:10057000004123F00045B8EB0200A94105D24046F6
:10058000214690461C460B46024623F0004010438D
:1005900047D0270DC7F30A00C3F30A510290401A4F
:1005A000019040286BDAC3F3130040F4801B0098DD
:1005B000924620B10023D2EB030A63EB0B0B0198A8
:1005C0005946C0F140025046FFF72CFF06460D4643
:1005D00050465946019A00F08DF910EB0800614130
:1005E000002487EA115284EAE7731A4340D0009A44
:1005F00062B3019A012A4FEA075215DC001B61EB36
:1006000002014FF0004202EA0752CDE90042001C0D
:1006100041F5801132462B4600F08DF903B0BDE85C
:10062000F08F40462146F9E7001B61EB0201001CF8
:1006300041F5801300185B412018A2F5001747EB25
:10064000030140EAD570B6196D4111E06D084FEA1B
:10065000360645EAC0754FEA0752001B61EB0201FE
:10066000001C41F5801149084FEA30000019514142
:1006700032462B4603B0BDE8F04F00F04DB900986C
:10068000012240000023D0EB020263EBE0730098EC
:1006900021464FEAE074B8EB000061EB0401E9E7A2
:1006A00083F000435BE781F0004158E72DE9FE4FFE
:1006B00081EA030404F0004421F0004100944FF06B
:1006C000000B23F0004350EA01045ED052EA030419
:1006D0005BD0C3F30A54C1F30A552C44A4F2F3349B
:1006E0000194A0FB0254C1F3130141F48011C3F340
:1006F000130343F4801301FB024400FB034E840AFE
:10070000970A44EA815447EA8357A4FB0768029595
:100710008D0A05FB07854FEA932C04FB0C54270533
:10072000029D4FEA065847EA1637B5EB08056EEB0F
:10073000070C870E920E47EA811742EA8312A7FB45
:100740000201B6EB0B0164EB00042B0D43EA0C3302
:100750005E1844EB1C50DA465146E7FB0201C5F334
:1007600013044FEA0B3343EA14534FEA0432019C5B
:1007700043EA0603A4F10C040294009CCDE900B402
:1007800000F0D9F803B0BDE8F08F00200146F9E78A
:100790002DE9F04D81EA030404F0004B21F00045FF
:1007A00014464FF0000A23F0004150EA050220D021
:1007B00054EA01021DD0C5F30A570246C5F31303DC
:1007C000C1F31300C1F30A5640F4801543F48013BB
:1007D000A7EB0608101BD64608F2FD3873EB0500A0
:1007E00002D308F1010801E092185B41B8F1000F53
:1007F00003DA00200146BDE8F08D00204FF480119F
:10080000064684460EE0171B73EB050705D3121B43
:1008100063EB050306434CEA010C49084FEA30003C
:1008200092185B4150EA0107EDD152EA030012D061
:1008300082EA040083EA0501084305D0101BAB419E
:1008400006D20122002306E000224FF0004302E01E
:100850006FF0010253101AEB06004CEB085110EB3D
:100860000A0041EB0B01BDE8F04D00F055B8C1F3B3
:100870000A52C1F3130140F2FF3341F480119A424E
:1008800002DA00200146704740F233439A42A2F256
:10089000334202DC5242FFF7D4BDFFF7C3BD000074
:1008A00030B5041E71F1000404DB4FF000444042F7
:1008B00064EB0101141E73F1000405DB1C464FF0CC
:1008C0000043524263EB0403994208BF904230BD9B
:1008D000064C074D06E0E06840F0010394E807008D
:1008E00098471034AC42F6D3FFF77AFC8CED000841
:1008F000ACED0008202A06DBCB17203A41FA02F0C3
:1009000043EAE07306E041FA02F3D040C2F120026C
:10091000914008431946704710B5141E73F1000446
:1009200008DA401C41F1000192185B411A4301D1E1
:1009300020F0010010BD2DE9F04D92469B4611B10B
:10094000B1FA81F202E0B0FA80F220329046FFF76D
:1009500069FD04460F4640EA0A0041EA0B0153468E
:100960005A46084313D0114653EA010019D0C8F182
:1009700040025046FFF765FD05460E465046594673
:100980004246FFF74FFD084305D0012004E0204612
:100990003946BDE8F08D0020054346EAE0762C4359
:1009A00037430A986305E40AA0EB08000022FD0A19
:1009B00044EA47540A3002D500200146E9E7010520
:1009C00010196941DDE9084500196941BDE8F04D9C
:1009D000A2E700009FED221A9FED222A20EE010AD5
:1009E000B5EE001A30EE010ABDEEC01A11EE100A83
:1009F000B5EE400AF1EE10FAB8BF013801EE100A68
:100A0000B8EEC11A30EE410A20EE020ABDEEC01A5D
:100A10009FED152A11EE100A002130EE021AB1EBFB
:100A2000502F4EF288511CBF0020B0EE410AC0F694
:100A3000000101EE100A01EB8001B8EE411A30EE20
:100A4000410A91ED001A91ED012AB7EE003A33EE1A
:100A5000403A23EE011A20EE020A31EE000A7047F6
:100A600083F9223E00000044000000C49FED201ADC
:100A70009FED202A20EE010ABDEEC01A11EE100AE9
:100A8000B5EE400AF1EE10FAB8BF013801EE100AD7
:100A9000B8EEC11A30EE410A20EE020ABDEEC01ACD
:100AA0009FED152A11EE100A002130EE021AB1EB6B
:100AB000502F4EF288511CBF0020B0EE410AC0F604
:100AC000000101EE100A01EB8001B8EE411A30EE90
:100AD000410A91ED001A91ED012AB7EE003A33EE8A
:100AE000403A23EE011A20EE020A31EE000A704766
:100AF00083F9223E00000044000000C4014800F0D9
:100B00009BBF0000F41F0020F8B5044600200090B1
:100B1000206804F04CF9002859D1206881682D4ADA
:100B2000114209D0E06D40F01000E065206E40F009
:100B3000010020660120F8BD8168264E7F3E3140CD
:100B4000491C81602068B0F1A04F02D02249884240
:100B500001D1224800E02248806800F0E0700002E5
:100B600010D5204820490068B0FBF1F0401C00EB94
:100B700040008000009002E00098401E0090009825
:100B80000028F9D101F0C8FE05461BE004F00FF97A
:100B900020B9206881683140491C816001F0BCFEA9
:100BA000401B02280ED920680068C043C00709D046
:100BB000E06D40F01000E065206E40F0010020661E
:100BC0000120F8BD20680168C943C907DED10020B3
:100BD000F8BD00003F0000800001005000030050FD
:100BE0000007005064000020400D0300FEE70000F5
:100BF000014801F0A4BA000080230020014801F060
:100C00009EBA0000E023002010B502680E4CD1B25D
:100C100014230839A24203D20C4AB1FBF3F104E0D9
:100C20000A4A2032B1FBF3F10831436C23F003038D
:100C30001A448264054A8032C26401F01F02012115
:100C40009140016510BD0000080402400008024008
:100C5000017901F07F01074A491E02EB81024265DA
:100C6000044A4032826501F01F0201219140C165B2
:100C7000704700000009024030B5D0E913546C60A1
:100C8000446D002C02D0D0E916546C6090F84440BA
:100C900004F01F050124AC40056C6C6004686360BF
:100CA0008368102B04D0036899600068C26030BD6F
:100CB00003689A600068C16030BD704772B6FEE795
:100CC000014801F050BB00008820002010B51849F1
:100CD000184B02689A4200D11749184B9A4201D129
:100CE00001F5D461016452F8803F848E23F4F81337
:100CF00043EA0443136001F170024264026852F84F
:100D0000803F90F8384023F0706343EA0463136037
:100D100001F1B0028264D832C264D832026518325E
:100D200042650020D83200E001C19142FCD310BDE1
:100D300000A400400068004050A70040006C004044
:100D4000704700002DE9F84F04460D4600270026A5
:100D5000009600206169DFF8009494F85820012A79
:100D60000BD04FF0010884F85880FC4A41B1296A41
:100D7000012905D0A36EEBB12AE00220BDE8F88F6F
:100D80006868092838D1A86A48B1296800F07C0051
:100D900001F0F84140EA5140E96A084303E028685D
:100DA00000F0F840400C2168CB6C13400343CB6447
:100DB000606621E0A1666666A96A39B1286A01F019
:100DC0007C01401E0843E96A084301E0286A401E8E
:100DD0002968C1F38463297901F01F018B40034323
:100DE000A06E401EA066616E1943616620B920683E
:100DF000C36C13400B43C364206803F0D4FF58B99D
:100E000095F8250098B12068C16895F8262021F44E
:100E1000401141EA4251C160206803F0D4FF82468C
:100E2000206803F0C0FF5AEA000A0ED002E195F8EC
:100E3000260095F82410400540EA01512068C26858
:100E400022F440121143C160E6E7A86AE8B3E86AF9
:100E5000D8B395F82500012868D02068C16821F032
:100E60000071C16095F83000012865D020680169E3
:100E700021F002010161AA68B2F1004F3BD029685C
:100E8000206803F0BBFF2068416921F00041416107
:100E900020686A69C168C1F3C10149008A402969B3
:100EA000042958D02B6800EB8100016EDFF8B0C236
:100EB00003F0F84301EA0C011343194341F00041E8
:100EC000016620682A69A96900E01FE000EB820042
:100ED000026E22F080720A430266297F20682A6926
:100EE000012935D0002100EB8200026E22F0007251
:100EF0000A4302669EE029680022206803F07EFF14
:100F00002068416941F000414161C1E795F8250041
:100F1000012805D02068C16821F00071C160A1E7F7
:100F20002068C16841F00071C1609BE7E06D40F04E
:100F30002000E065012795E7D5E90D100143206801
:100F4000026922F4FF7242F002021143016192E74A
:100F50004FF00071C7E7002103F01BFF40036FD083
:100F60000021206803F015FF90FAA0F0B0FA80F19C
:100F7000286842036BD090FAA0F0B0FA80F081426A
:100F800004D100221146206803F04FFF01212068A0
:100F900003F0FFFE40035DD00121206803F0F9FE5D
:100FA00090FAA0F0B0FA80F12868420359D090FA84
:100FB000A0F0B0FA80F0814204D100220121206823
:100FC00003F033FF0221206803F0E3FE40034BD01F
:100FD0000221206803F0DDFE90FAA0F0B0FA80F163
:100FE0002868420347D090FAA0F0B0FA80F081421E
:100FF00004D100220221206803F017FF032120689A
:1010000003F0C7FE400339D00321206803F0C1FE7E
:1010100090FAA0F0B0FA80F12868420335D090FA37
:10102000A0F0B0FA80F0814204D1002203212068B0
:1010300003F0FBFE206803F0BEFE48B3B9E0FFE713
:101040000021206803F0A5FEC0F3846190E7C0F39F
:10105000846094E70121206803F09BFEC0F3846163
:10106000A2E7C0F38460A6E70221206803F091FEA6
:10107000C0F38461B4E7C0F38460B8E7032120685B
:1010800003F087FEC0F38461C6E7C0F38460CAE75B
:1010900021682A7B286851F8B03FC0F3120C23EA7C
:1010A0000C0302F0180C2F4A22FA0CF202401343F0
:1010B0000B60E86848457CD12868410319D090FA54
:1010C000A0F1B1FA81F1491C01F01F01092931D8C1
:1010D0004103002910D090FAA0F1B1FA81F101F199
:1010E000010101F01F0108FA01F808D1C0F3846181
:1010F00009E0C0F38461E6E7C0F38461EFE790FAAA
:10110000A0F1B1FA81F101F1010101F01F0148EAFA
:10111000816102D1C0F3846003E090FAA0F0B0FADC
:1011200080F000F1010000F01F0000EB400041EAF8
:1011300000513AE04FEA4031002915D090FAA0F171
:10114000B1FA81F101F1010101F01F0108FA01F882
:101150000DD1C0F384610EE000007F400040100418
:1011600000F0FF03FFFF0700C0F38461EAE790FA95
:10117000A0F1B1FA81F101F1010101F01F0148EA8A
:10118000816102D1C0F3846003E090FAA0F0B0FA6C
:1011900080F000F1010000F01F00A0F10A0000EB58
:1011A000400041EA005040F00071AA68206803F056
:1011B00025FE38482A68024267D020684FF0A048D0
:1011C000354BDFF8D8C0364D404501D0A84201D19B
:1011D000194600E06146896801F0E071DFF8C490CB
:1011E0004A4503D0DFF8C0904A4525D15FEA01297E
:1011F00022D4404502D02D4A904246D1404502D0EB
:10120000A84200D0634641F40000996821F0E071E3
:1012100001439960264827490068B0FBF1F0801C23
:1012200000EB40008000009002E00098401E00901B
:1012300000980028F9D128E0DFF87C904A4512D1C7
:101240005FEAC1190FD4A8421FD01C4A90421CD09B
:10125000404500D0634641F08070996821F0E0710C
:101260000143996011E0DFF858904A450DD14A02D8
:101270000BD4A84209D0404500D0634641F4800019
:10128000996821F0E0710143996084F8586038460C
:1012900074E50000000008800003005000070050C3
:1012A00000010050000021C31000C0900006005053
:1012B00064000020400D0300000052C700050050EC
:1012C000000084CB10B50B490068096888420FD133
:1012D000002006F083FF002006F074FF012006F0D6
:1012E00071FF09F055F8BDE81040012006F076BF07
:1012F00010BD0000F41F0020A1F5807100680F39B7
:101300000ED0B1F5837F08D0B1F5037F02D0D0F8BD
:1013100080007047D0F88C007047D0F88800704784
:10132000D0F88400704770472DE9F04104464FF033
:10133000A04620683E4FB04201D0B84201D13D499D
:1013400000E03D49896801F01F0503F02CFD10B154
:101350000220BDE8F0812068C16801F00041C06C46
:1013600010F4C07F00D181B194F85800012812D048
:10137000012084F858002046FFF7C6FB02460023F0
:101380005AB184F858301046E3E7E06D40F0200091
:10139000E0650120DDE70220DBE7E06DC00504D554
:1013A000206E20F00800206600E02366E06D42F227
:1013B0000101884340F48050E0652068DFF87CC07C
:1013C000DFF87C80B84201D1314604E0604501D1AC
:1013D000414600E00146814200D01DB9E16D21F493
:1013E0008011E1656021016084F858302068B842BE
:1013F00001D1314604E0604501D1414600E001469B
:10140000814209D045B1062D06D0072D04D0E06DEC
:1014100040F48010E065B6E7C16801F00071002972
:10142000B1D18168074B194041F008018160AAE7FA
:10143000000100500003005000070050000500505C
:1014400000040050C0FFFF7F704770472DE9F04F48
:101450009DB004460D464FF0000A94F8580001284C
:1014600011D0012084F85800002719971A97206896
:101470004FF0A04BDFF82881DFF828914A4E5845FD
:1014800005D1029609E002201DB0BDE8F08F40456D
:1014900002D1CDF8089000E00297029840B102987E
:1014A00003F091FC0190206803F08DFC40B109E04D
:1014B000E06D40F02000E06584F858700120E3E71B
:1014C000019848B1E06D40F02000E0654FF0010A5E
:1014D00084F858705046D7E72068584501D0B0428C
:1014E00001D1324800E03248324B296840F61F7281
:1014F00081B3816894F838C021F4604141EA4C31ED
:10150000D5F804C041EA0C0181602168594501D039
:10151000B14208D1DBF80810C1F30001B368C3F38E
:10152000000319430CE0D8F80810C1F30001D9F802
:101530000860C6F3000631439B68C3F300031943F8
:101540000029C5D1AB6829681943836893431943BF
:101550008160BDE7FFE7816821F460418160216817
:10156000594501D0B14208D1DBF80810C1F30001A0
:10157000B368C3F3000319430CE0D8F80810C1F3B3
:101580000001D9F80850C5F3000529439B68C3F34F
:101590000003194300299BD181689143816097E73B
:1015A00000040050000500500001005000030050EE
:1015B00000070050000600502DE9F84F04460D4684
:1015C000002600270097DFF8309494F8580001288F
:1015D00011D04FF0010884F85880206803F0EFFB29
:1015E00058B1E06D40F02000E065012684F85870A5
:1015F0003046BDE8F88F0220FBE7A98820682A68FA
:1016000001F4407300EB9310036B01F01F014FF0E6
:101610001F0C0CFA01FCC2F3846223EA0C038A401B
:1016200013430363206803F0CAFB8246206803F07B
:10163000B6FB5AEA000A3CD1AA68B2F1004F39D091
:101640002968206803F0CBFB2068416921F0004144
:10165000416120686A69C168C1F3C10149008A40DB
:101660002969042934D02B6800EB8100016EDFF872
:101670008CC303F0F84301EA0C011343194341F012
:101680000041016620682A69A96900EB8200026EA8
:1016900022F080720A430266297F20682A690129A4
:1016A00013D0002100EB8200026E22F000720A4388
:1016B00002667CE029680022206803F090FB206825
:1016C000416941F000414161C3E74FF00071E9E732
:1016D000002103F058FB40036ED00021206803F086
:1016E00052FB90FAA0F0B0FA80F1286842036AD069
:1016F00090FAA0F0B0FA80F0814204D100221146A5
:10170000206803F08AFB0121206803F03CFB4003C2
:101710005CD00121206803F036FB90FAA0F0B0FA0B
:1017200080F12868420358D090FAA0F0B0FA80F017
:10173000814204D100220121206803F06EFB0221C6
:10174000206803F020FB40034AD00221206803F008
:101750001AFB90FAA0F0B0FA80F12868420346D054
:1017600090FAA0F0B0FA80F0814204D10022022168
:10177000206803F052FB0321206803F004FB4003C0
:1017800038D00321206803F0FEFA90FAA0F0B0FAF6
:1017900080F12868420334D090FAA0F0B0FA80F0CB
:1017A000814204D100220321206803F036FB206827
:1017B00003F0FDFA40B3B0E00021206803F0E3FA43
:1017C000C0F3846191E7C0F3846095E7012120684C
:1017D00003F0D9FAC0F38461A3E7C0F38460A7E7FC
:1017E0000221206803F0CFFAC0F38461B5E7C0F3AB
:1017F0008460B9E70321206803F0C5FAC0F384616F
:10180000C7E7C0F38460CBE720682A7B296850F8DB
:10181000B03FC1F3120C23EA0C0302F0180C784A13
:1018200022FA0CF20A4013430360E868484574D179
:101830002868410319D090FAA0F1B1FA81F1491C4E
:1018400001F01F01092931D84103002910D090FA75
:10185000A0F1B1FA81F101F1010101F01F0108FAD3
:1018600001F808D1C0F3846109E0C0F38461E6E7C0
:10187000C0F38461EFE790FAA0F1B1FA81F101F1D0
:10188000010101F01F0148EA816102D1C0F38460C7
:1018900003E090FAA0F0B0FA80F000F1010000F04F
:1018A0001F0000EB400041EA005132E04FEA4031B6
:1018B00000290DD090FAA0F1B1FA81F101F10101F6
:1018C00001F01F0108FA01F805D1C0F3846106E0B8
:1018D000C0F38461F2E790FAA0F1B1FA81F101F16D
:1018E000010101F01F0148EA816102D1C0F3846067
:1018F00003E090FAA0F0B0FA80F000F1010000F0EF
:101900001F00A0F10A0000EB400041EA005040F047
:101910000071AA68206803F062FA3A482A68024215
:101920003FF464AE20684FF0A048374BDFF8DCC0CE
:10193000374D404501D0A84201D1194600E061462B
:10194000896801F0E071DFF8CC904A4503D0DFF8F8
:10195000C8904A4526D15FEA012923D4404503D0E7
:101960002E4A90427FF442AE404502D0A84200D0B9
:10197000634641F40000996821F0E07101439960E9
:10198000274828490068B0FBF1F0401C00EB4000FC
:101990008000009002E00098401E0090009800280F
:1019A000F9D123E6DFF880904A4512D15FEAC119E8
:1019B0000FD4A842F5D01D4A9042F2D0404500D045
:1019C000634641F08070996821F0E07101439960AD
:1019D0000CE6DFF85C904A45E3D14A02E1D4A84224
:1019E000DFD0404500D0634641F48000996821F083
:1019F000E07101439960F9E500007F4000F0FF03CA
:101A0000FFFF07000000088000030050000700509F
:101A100000010050000021C31000C09000060050DB
:101A200064000020400D0300000052C70005005074
:101A3000000084CB704770472DE9F84F04464FF003
:101A400000082068056846684FF0A049DFF8A4B296
:101A5000484501D0584501D1A74800E0A748806813
:101A600000F01F07A8070ED5B0070CD5E06DC00623
:101A700003D4E06D40F40060E0652046FFF760F9B4
:101A8000216802200860DFF878A2680701D5700796
:101A900003D4280741D530073FD5E06DC00603D4F5
:101AA000E06D40F40070E065206803F090F970B3D9
:101AB0002068584501D1494605E09249884201D144
:101AC000514600E00146814208D03FB1052F05D0C4
:101AD000092F03D0584503D1494607E0C16806E005
:101AE0008849884201D1514600E00146C96889040D
:101AF0000DD4016809070AD503F061F958B3E06D08
:101B000040F01000E065206E40F0010020662046A5
:101B1000FFF790FF21680C200860A80601D5B006E9
:101B200003D4680660D570065ED5E06DC00603D4A8
:101B3000E06D40F40050E0652068C16C11F4C07F96
:101B40001AD00021009103F042F90246206858455E
:101B500014D1494618E02068416821F00C01416029
:101B6000E06D20F48070E065E06DC004CFD4E06DDE
:101B700040F00100E065CAE70121E3E761498842DE
:101B800001D1514600E00146814208D03FB1062F05
:101B900005D0072F03D0584503D1CA4605E0C168D8
:101BA00005E05849884200D08246DAF80C10009BC4
:101BB000A3B18B0102D58AB18A040FD40268520600
:101BC0000CD589020AD403F0EAF8E8B3E06D40F0DE
:101BD0001000E065206E40F0010020662046FFF70F
:101BE00071FB21686020086028060BD5300609D5F6
:101BF000E06D40F48030E065204600F0A7F92168F0
:101C000080200860E8050CD5F0050AD5E06D40F4A9
:101C10000030E0652046FFF717FC21684FF4807024
:101C20000860A8050CD5B0050AD5E06D40F4802009
:101C3000E0652046FFF709FC21684FF4007008605A
:101C4000E80640D5F00600E00AE03CD5E06BC0B104
:101C500017B32068484501D0584515D1264814E0EF
:101C60002068416821F060014160E06D20F48050FF
:101C7000E065E06DC005B1D4E06D40F00100E065C5
:101C8000ACE74FF001080DE01C48806800F46040AC
:101C900040B14FF0010805E02068C068C00701D0DE
:101CA0004FF00108B8F1010F0AD1E06D40F48060F7
:101CB000E065206E40F0020020662046FFF7BBFE84
:101CC000216810200860680512D5700510D5E06DF8
:101CD00040F48040E065206E40F0080020662168F6
:101CE0004FF4806008602046BDE8F84FFFF71BBB4B
:101CF000BDE8F88F000100500003005000070050BD
:101D00000004005000050050F8B5044600250026E8
:101D10000096002C02D0E06D10B107E00120F8BD64
:101D2000204600F015F9266684F85860206881681E
:101D3000C1F3407119B18168794A1140816020680E
:101D40008168C1F30071A1B98168764A114041F000
:101D500080518160744875490068B0FBF1F0401C07
:101D60004000009002E00098401E0090009800287B
:101D7000F9D120688168C1F3007141B9E16D41F08A
:101D80001001E165216E41F001012166012503F09A
:101D900016F8E16DC90600D430B1E06D40F01000D6
:101DA000E06501252846F8BDE06D20F4807040F024
:101DB0000200E065206802F0FAFF58BB20684FF08F
:101DC000A0435B4A984201D0904207D19968C1F381
:101DD00000019668C6F3000631430DE05549896855
:101DE000C1F30001544EB668C6F300063143534EAA
:101DF000B668C6F30006314361B9984201D09042FB
:101E000001D14F4800E04F486168826822F47C129B
:101E10000A438260E168E06B627F0843A16841EA9F
:101E20004231084394F8241040EA0140012903D1CB
:101E3000218D491E40EA4140E16A29B101F47871DF
:101E4000226B014342EA01002168CA683E4B1A40F6
:101E50000243CA6020680169626B21F0406111434E
:101E60000161206802F09BFF80BB207F94F838104E
:101E7000800340EA41012068C26844F202039A43A9
:101E80000A43C260206968B12068016941F4803169
:101E90000161206850F8C01F22696FF30D011143E2
:101EA00001600AE02068016921F480310161206845
:101EB00050F8C01F6FF30D01016094F84000012835
:101EC00013D02068016921F00101016160690128D6
:101ED0001CD02068016B21F00F010163E06D20F040
:101EE000020040F00100E0655CE7D4E91110014315
:101EF000D4E91302104301432068026940F2FC73E5
:101F00009A43114341F001010161DFE72068016B51
:101F1000226A21F00F01521E11430163DEE7000027
:101F2000C0FFFF5FC0FFFF7F64000020400D030083
:101F30000001005000040050000500500006005051
:101F400000030050000700500740F0FF70470000FA
:101F500030B59BB00446142116A8FEF736FA54217A
:101F600001A8FEF732FA2068B0F1A04F3DD14FF43E
:101F7000004001908003129001A800F00BFF08B10F
:101F8000FEF79CFE1A48C16C41F40051C164C16C5B
:101F900001F400510091C16C41F00101C164C16CB8
:101FA00001F001010091C16C41F00201C164C06CFB
:101FB00000F0020000900F201690032417940025D3
:101FC000189516A94FF0904000F0C4FB1694179492
:101FD000189516A9074800F0BDFB00220521122024
:101FE00000F038FE122000F027FE1BB030BD0000CC
:101FF000001002400004004870B50446002C04D0D4
:1020000094F82100002510B106E0012070BD84F88D
:102010002050204600F00CF865626560A560E56020
:1020200025616561012084F82100002070BD000059
:1020300008B500680649884208D10648816C41F01D
:1020400008018164806C00F00800009008BD000069
:10205000000C02400010024010B50021002808D0FA
:1020600090F825200123022A05D00421C163012113
:1020700024E0012010BD0268146824F001041460FB
:102080000268146824F00E041460826C146824F44E
:102090008074146090F84420046C02F01F0203FA6C
:1020A00002F26260D0E913426260426D32B114689C
:1020B00024F480741460D0E91642626024304370C6
:1020C00000220270084610BD70B5002490F825105B
:1020D00000230122022906D00421243081614270AC
:1020E0000370012429E001680D6825F001050D60E9
:1020F00001680D6825F00E050D60816C0D6825F4F2
:1021000080750D6090F84410154601F01F018A405B
:10211000016C4A60D0E913215160416D31B10A6808
:1021200022F480720A60D0E91621516080F82550AF
:1021300080F82430816B01B18847204670BDF0B42F
:10214000016C0A6801680B6890F84440042604F0AA
:102150001F0406FA04F5154215D05D0713D50A6869
:10216000920603D40A6822F004020A6090F8441030
:1021700001F01F0106FA01F5016C4D60016B0029A9
:1021800041D0F0BC08474FF0020C0CFA04F616429E
:102190004FF000074FF0010519D09E0717D50A68C8
:1021A000920605D40A6822F00A020A6080F82550D7
:1021B00090F8441001F01F010CFA01F6016C4E601A
:1021C00080F82470C16A00291DD0F0BC0847082699
:1021D000A640164217D01A0715D50A6822F00E023B
:1021E0000A6090F84410026C01F01F0105FA01F139
:1021F0005160C56380F8255080F82470416B002938
:1022000001D0F0BC0847F0BC7047000070B5044630
:10221000002C0DD02B4A2068142190420AD22A4A61
:102220000244B2FBF1F189006164284921640BE0AA
:10223000012070BD234A52420244B2FBF1F18900F1
:102240006164204908392164022184F8251002685C
:1022500047F6F0718A43D4E902131943D4E90435EF
:102260002B431943A3691943E3691943236A1943AB
:10227000114301602046FEF7C7FCA0680025B0F5B9
:10228000804F00D165602079A16C00F07F0008606C
:10229000D4E9131048606068401E032808D820461F
:1022A000FEF7D6FC606D0560D4E91610486002E0C8
:1022B0006565A565E5652434A5610120607025701C
:1022C000002070BD08040240F8FFFDBF000002407E
:1022D00070B50446002594F8240001280CD0012094
:1022E00084F8240094F825600020012E06D084F89C
:1022F00024000225284670BD022070BD022684F805
:102300002560E0632068066826F001060660204626
:10231000FEF7B2FC206B28B12068016841F00E0185
:10232000016009E02068016821F004010160206873
:10233000016841F00A010160A06C0168C90303D57E
:10234000016841F480710160606D18B1016841F469
:10235000807101602068016841F001010160C9E7F6
:102360007047704770472DE9F05F04462068016DA3
:1023700001F4E051D0F8548008EA0108016D01F041
:102380000701D0F8549009EA0109016D01F0380104
:10239000D0F854A00AEA010A016D01F47101476DF9
:1023A0000F40016D01F46021D0F854B00BEA010B2D
:1023B000456D016DCE43710607D4E943490604D447
:1023C000402101652046FFF7CDFFF0050ED4E8431C
:1023D000C0050BD42068D0F8D820D0F8E010114008
:1023E0004FF480720265204600F0B0F9B8F1000F9A
:1023F00006D02068C0F850804146204600F0A8F979
:10240000B9F1000F06D02068C0F850904946204628
:1024100000F098F9BAF1000F06D02068C0F850A07B
:102420005146204600F08FF9B00509D4E8438005F5
:1024300006D421684FF400700865204600F089F941
:1024400030060DD4E84300060AD42068D0F8D42022
:10245000D0F8DC10114080220265204600F077F9A8
:10246000B00409D4E843800406D421684FF4005036
:102470000865204600F069F9300409D4E8430004F7
:1024800006D421684FF400400865204600F05CF94E
:1024900070040AD4E843400407D421684FF4804014
:1024A0000865206E40F080002066BBF1000F06D06A
:1024B0002068C0F850B059462046FFF752FF27B1B8
:1024C00020680765206E38432066206E002802D001
:1024D0002046FFF745FFBDE8F09F00002DE9F047DB
:1024E0000446002C07D0724F4FF4407994F85C00FA
:1024F000002618B107E00120BDE8F08784F85D6090
:10250000204600F0D9F82068816921F0100181612E
:1025100000F002FA05464FF003080CE000F0FCF969
:10252000401B0A2807D9206E40F00100206684F87D
:102530005C800120E0E7206880690007EED4206815
:10254000816941F00101816100F0E6F905460CE086
:1025500000F0E2F9401B0A2807D9206E40F0010084
:10256000206684F85C800120C6E720688069C00787
:10257000EED02068816941F0020181612068B84293
:1025800002D14C4960680860207C012839D020685D
:10259000816941F040018161607C012837D0206869
:1025A000816921F480418161A07C012835D02068B7
:1025B000816941F48051816120688169A26821F4B8
:1025C0004071114381612068816921F0A40181611A
:1025D0002068016921F010010161E068012822D022
:1025E00030B302282BD02068816941F080018161DD
:1025F0002068016941F010010161E068032818D0EA
:1026000022E02068816921F040018161C4E72068EF
:10261000816941F480418161C6E72068816921F4C4
:1026200080518161C8E72068816941F004018161BE
:102630000AE02068816941F02001816104E020689E
:10264000816941F020018161207E401E4106E069E0
:10265000401E41EA0020216A491E0843A18A491E02
:1026600040EA01402168C861A06848450FD1A06ACE
:10267000E16A401E491E40EA0121206B401E41EAEA
:102680000011A08C401E41EA00402168C86020680B
:1026900050F8C01FE26B114301602046FEF716FBA5
:1026A000A6652666012084F85C00002024E700006F
:1026B000006400400065004010B59CB00446142141
:1026C00017A8FDF782FE542102A8FDF77EFE1B49E4
:1026D0002068884230D1801402904003109002A8F4
:1026E00000F058FB08B1FEF7E9FA1548816D41F09A
:1026F00000718165816D01F000710191C16C41F043
:102700000101C164C06C00F0010001904FF4C050A1
:10271000179002201890002019901A9009201B9001
:1027200017A9C00600F016F800220521152000F0B8
:1027300091FA152000F080FA1CB010BD0064004032
:1027400000100240704770477047704770477047ED
:10275000704770472DE9F84F0022DFF890914FF055
:10276000010803274FF00F0C09F1040AA9F1040B2B
:10277000B4E008FA02F52B40002B6ED00C7904F07F
:102780000304012C01D0022C15D18668540007FAED
:1027900004FE26EA0E06D1F80CE00EFA04FE4EEA1C
:1027A000060EC0F808E04468AC430D79C5F3001587
:1027B0009540254345600C79E443A40702D18C6819
:1027C000012C08D0C568540007FA04F6B5438E689A
:1027D000A6402E43C6600C7904F00304022C11D1EC
:1027E000D40800EB8406356A5407E40E0CFA04FEA4
:1027F00025EA0E05D1F810E00EFA04FE4EEA050EA9
:10280000C6F820E00568540007FA04F6B5430E79CF
:1028100006F00306A6402E4306604C6814F4403FC1
:102820005BD0334C256E45F001052566246E04F01F
:10283000010400942F4C22F003052E19B56894076B
:102840004FEA147E0CFA0EF4A543B0F1904F05D078
:10285000294CA04204D1012417E03EE0002414E0FA
:10286000264CA04201D102240FE0254CA04201D108
:1028700003240AE0234CA04201D1042405E0224CA9
:10288000A04201D1052400E0062404FA0EF42C43F2
:10289000B460D9F800409C434D68ED0200D51C435C
:1028A000C9F80040DAF800409C434D68AD0200D5FD
:1028B0001C43CAF80040DBF800409C434D68AD0360
:1028C00000D51C43CBF80040084D083D2C689C43C4
:1028D0004E68F60300D51C432C60521C0B6833FA7B
:1028E00002F47FF446AFBDE8F88F00000804014011
:1028F00000100240000001400004004800080048A9
:10290000000C00480010004800140048002A01D0C4
:10291000816170478162704701488068704700009C
:102920005800002090F84120202A01D00220704752
:1029300090F84020012A20D0012280F84020242253
:1029400080F841200268136823F0010313600268D5
:10295000136823F480531360026813680B431360F9
:1029600001680A6842F001020A60202180F84110E3
:10297000002180F84010002070470220704790F836
:102980004120202A01D00220704790F84020012ADF
:102990001ED0012280F84020242280F841200268C5
:1029A000136823F0010313600268136823F4706353
:1029B00043EA0121116001680A6842F001020A60DD
:1029C000202180F84110002180F84010002070473D
:1029D0000220704770B50446002C04D094F84100E2
:1029E000002510B106E0012070BD84F8405020465B
:1029F00000F056F8242084F841002068016821F096
:102A0000010101606068216820F070600861206841
:102A1000816821F400418160E068012831D0A0681C
:102A2000216840F404408860E06802282FD02068C4
:102A3000416821F40061416020684168174A1143F0
:102A400041602068C16821F40041C160D4E90401FB
:102A50000843A16940EA01202168C860D4E9070160
:102A60000843216808602068016841F001010160A5
:102A70006564202084F84100256384F842500020DA
:102A800070BDA068216840F400408860CCE72068F1
:102A9000416841F400614160CEE70000008000021F
:102AA000F0B59BB00446142116A8FDF78EFC542106
:102AB00001A8FDF78AFC20492068884239D14020CE
:102AC00001900025089501A800F064F908B1FEF70F
:102AD000F5F81A4CE06C40F00100E064E06C00F0A6
:102AE00001000090E06C40F00200E064E06C00F057
:102AF000020000904FF40040169012271797189587
:102B0000199504261A9616A9B806FFF723FE601534
:102B100016901797189519951A9616A90848FFF751
:102B200019FEA06D40F40010A065A06D00F4001027
:102B300000901BB0F0BD00000054004000100240A7
:102B4000000400480248816842681144816070476F
:102B50005800002010B50024032000F09BF80F203F
:102B600000F008F808B1012401E000F047F8204621
:102B700010BD000030B587B005461B48816D41F09F
:102B800020018165806D00F02000009001A902A85D
:102B900000F06CFB00F08EFB1449B0FBF1F1491E14
:102BA0001448134A026040F2E732C26041600021DB
:102BB0000161816001F06BF9044694B90D4801F0A0
:102BC000BFF904466CB9372000F036F8102D07D253
:102BD00000222946372000F03DF80748056000E054
:102BE000012407B0204630BD0010024040420F00D3
:102BF00000140040402400205800002008B50D4873
:102C0000016E41F001010166016E01F001010091C8
:102C1000816D41F080518165806D00F080500090A1
:102C200000220F21901E00F015F8BDE8084000F0CA
:102C3000A9B8000000100240002809DB00F01F02C4
:102C4000012191404009800000F1E020C0F800110E
:102C500070470000F0B40D460D4B1B68C3F3022310
:102C6000C3F10704042C00D90424191D072901D23B
:102C7000002300E0DB1E012606FA04F1491E29406C
:102C800099409E40761E16403143F0BC03F07DBC57
:102C90000CED00E000F00701054A10684FF6FF0355
:102CA000184040EA012003490843106070470000C3
:102CB0000CED00E00000FA052F49304B0A68322184
:102CC0004A432F4900280AD0B0F5007F2DD008686C
:102CD00020F4C06040F480600860002070470868FD
:102CE000C0F34120022805D051F8800F20F48070F5
:102CF0000860F2E7D1F8800020F48070C1F880000D
:102D0000086820F4C06040F400700860B2FBF3F083
:102D1000401C00E0401E4A69520501D50028F9D147
:102D200048694005D9D5032070470868C0F34120A1
:102D3000022805D051F8800F40F480700860CCE77D
:102D4000D1F8800040F48070C1F88000086820F459
:102D5000C06040F400700860B2FBF3F0401C00E07B
:102D6000401E4A69520501D50028F9D1486940053D
:102D7000B3D50320704700006400002040420F00DC
:102D8000007000400248816841F4804181607047D2
:102D9000007000402DE9F84F044600260027206807
:102DA000BE4D000366D54FF00008A86DC00009D4E1
:102DB000A86D40F08050A865A86D00F0805000908C
:102DC0004FF00108DFF8D8A2DAF8000040F4807074
:102DD000CAF80000FFF7A0FD814607E0FFF79CFD61
:102DE000A0EB0900022801D9032603E0DAF800006D
:102DF000C005F3D526B13746B8F1010F36D039E01A
:102E0000D5F8900000F4407080B1216D81420DD062
:102E100055F8900F20F44070296841F48031296002
:102E2000296821F48031296045F89009C00711D044
:102E3000FFF772FD814641F2883A07E0FFF76CFD2B
:102E4000A0EB0900504501D9032603E0D5F8900016
:102E50008007F3D50EB13746CEE7D5F89000216D47
:102E600020F440700843C5F89000C5E7A86D20F035
:102E70008050A8652078C00707D0D5F88800616821
:102E800020F003000843C5F888002078800707D5A4
:102E9000D5F88800A16820F00C000843C5F8880028
:102EA0002078400707D5D5F88800E16820F0300089
:102EB0000843C5F888002078000707D5D5F88800B2
:102EC000216920F0C0000843C5F888002078C006BA
:102ED00007D5D5F88800616920F440700843C5F82B
:102EE00088002078800607D5D5F88800A16920F4ED
:102EF00040600843C5F888002078400607D5D5F81B
:102F00008800E16920F440500843C5F88800207823
:102F1000000607D5D5F88800216A20F44040084310
:102F2000C5F888002088C00507D5D5F88800616AF3
:102F300020F440300843C5F888002068800307D596
:102F4000D5F89C00A16A20F003000843C5F89C0056
:102F50002088800507D5D5F88800E16A20F4402054
:102F60000843C5F88800208840050FD5D5F88800AB
:102F7000216B20F440100843C5F88800206BB0F5A1
:102F8000801F03D1E86840F48010E86020880005C5
:102F90000FD5D5F88800616B20F440000843C5F8D0
:102FA0008800606BB0F5800F03D1E86840F48010B2
:102FB000E8602088C0040FD5D5F88800A16B20F008
:102FC00040700843C5F88800A06BB0F1807F03D142
:102FD000E86840F48010E86020884FF000618004C9
:102FE0000ED5D5F88800E26B20F040601043C5F89C
:102FF0008800E06B884203D1E86840F48010E86004
:10300000208840040ED5D5F88800226C20F040605E
:103010001043C5F88800206C884203D1E86840F46A
:103020008010E860208800040FD5D5F88800616C16
:1030300020F040500843C5F88800606CB0F1805F14
:1030400003D1E86840F48030E8602068C0030FD501
:10305000D5F88800A16C20F040400843C5F88800EE
:10306000A06CB0F1804F03D1E86840F48030E86094
:10307000206840030FD5D5F89C00E16C20F4401087
:103080000843C5F89C00E06CB0F5001F03D1E86868
:1030900040F48010E8603846BDE8F88F0010024028
:1030A000007000402DE9F04704460D460027002C33
:1030B00017D0DFF8A091D9F8000000F00F00A84267
:1030C00011D2D9F8000020F00F002843C9F8000001
:1030D000D9F8000000F00F00A84204D00120BDE89C
:1030E000F0870120FBE720785B4EC00741F2883A69
:1030F0004ED06068DFF86481032806D002281ED015
:103100003068400520D40120E9E73068800101D40F
:103110000120E4E702F0A2F9404520D9B06810F0A0
:10312000F00F04D02078800719D5A068B8B9B0682E
:1031300020F0F00040F08000B06080270FE03068A1
:10314000800301D40120CAE700F0D8F8404506D931
:10315000B06820F0F00040F08000B0608027B068D8
:10316000616820F003000843B060FFF7D5FB80469C
:1031700007E0FFF7D1FBA0EB0800504501D9032081
:10318000ADE7B068616800F00C00B0EB810FF0D1E2
:103190002068810715D5400703D5B06840F4E0608A
:1031A000B0602078000705D5B06820F4605040F486
:1031B000E060B060B068A16820F0F0000843B06043
:1031C00005E0802F03D1B06820F0F000B060D9F89E
:1031D000000000F00F00A84217D9D9F8000020F035
:1031E0000F002843C9F80000FFF796FB074606E0EA
:1031F000FFF792FBC01B504501D903206FE7D9F8B8
:10320000000000F00F00A842F2D12078400705D559
:10321000B068E16820F4E0600843B06020780007FF
:1032200006D5B068216920F4605040EAC100B06062
:1032300000F064F8B1680A4AC1F30311515C01F06F
:103240001F01C8400749086007480068BDE8F0470B
:10325000FFF790BC002002400010024000B4C404FC
:1032600044E5000864000020580000200F2202609E
:103270000B4A936803F003034360936803F0F00381
:103280008360936803F4E063C360926802F4605261
:10329000D20802610348006800F00F000860704720
:1032A0000010024000200240014800687047000002
:1032B0006400002000B5FFF7F7FF05498968054A5B
:1032C000C1F30221515C01F01F01C84000BD0000A4
:1032D0000010024054E5000800B5FFF7E5FF05497E
:1032E0008968054AC1F3C221515C01F01F01C84041
:1032F00000BD00000010024054E5000810B51A4A55
:103300009068C0F38101194801290BD091684410DD
:10331000C1F38101022906D09168C1F3810103291B
:1033200003D0002010BD204610BDD16801F003037A
:10333000D168C1F30311491C032B0DD0B0FBF1F090
:10334000D168C1F306214843D168C1F34161491CEA
:103350004900B0FBF1F010BDB4FBF1F0D168C1F34E
:1033600006214843F0E70000001002400024F4006A
:103370002DE9F8430446002C0CD02078FE4DC00700
:1033800052D0A86800F00C00E96801F003010C2895
:1033900003D004E00120BDE8F883032916D00828F3
:1033A00014D06068B0F5803F17D0B0F5A02F19D0C9
:1033B000286820F480302860286820F48020286065
:1033C000606818B3FFF7A8FA06461BE02868800378
:1033D0002AD5606840BB0120DDE7286840F48030D2
:1033E0002860EDE7286840F480202860286840F4D1
:1033F00080302860E4E7FFF78FFA801B642801D94A
:103400000320C8E728688003F5D50DE0FFF784FAAC
:10341000064606E0FFF780FA801B642801D90320E6
:10342000B9E728688003F5D4207880074ED5A868CE
:1034300000F00C00E96801F003010C2801D1022919
:103440000BD0042809D0E06870B3286840F480707D
:103450002860FFF761FA06461BE02868400501D5A1
:10346000E06868B16868217C20F0FE4040EA0160B5
:103470006860C2480068FFF77DFB38B301208AE727
:10348000012088E7FFF748FA801B022801D90320B2
:1034900081E728684005F5D56868217C20F0FE406A
:1034A00040EA0160686011E0286820F480702860BC
:1034B000FFF732FA064606E0FFF72EFA801B0228D5
:1034C00001D9032067E728684005F5D42078000774
:1034D0002CD56069A8B1D5F8940040F00100C5F87A
:1034E0009400FFF719FA064606E0FFF715FA801B6D
:1034F000022801D903204EE7D5F894008007F4D5BF
:1035000014E0D5F8940020F00100C5F89400FFF70E
:1035100003FA064606E0FFF7FFF9801B022801D9EF
:10352000032038E7D5F894008007F4D420784007CA
:103530006FD54FF00008A86DC00009D4A86D40F009
:103540008050A865A86D00F0805000904FF00108F1
:103550008B4E3068C00511D4306840F48070306004
:10356000FFF7DAF9074606E0FFF7D6F9C01B022895
:1035700001D903200FE73068C005F5D5A068012800
:1035800013D0052818D055F8900F20F001002860BE
:10359000286820F0040045F89009A06841F28836B8
:1035A00008B3FFF7B9F9074618E0D5F8900040F0E6
:1035B0000100C5F89000F0E755F8900F40F00400C6
:1035C0002860286840F0010045F89009E5E7FFF71A
:1035D000A3F9C01BB04201D90320DCE6D5F8900066
:1035E0008007F4D50EE0FFF797F9074606E0FFF7EE
:1035F00093F9C01BB04201D90320CCE6D5F8900066
:103600008007F4D4B8F1010F03D1A86D20F08050E9
:10361000A865207880062CD5A069A8B1D5F89800B7
:1036200040F00100C5F89800FFF776F9064606E07D
:10363000FFF772F9801B022801D90320ABE6D5F809
:1036400098008007F4D514E0D5F8980020F0010028
:10365000C5F89800FFF760F9064606E0FFF75CF949
:10366000801B022801D9032095E6D5F89800800731
:10367000F4D4E069F0B3A9684FF0FF37C1F38101DA
:1036800003295ED0022807D0286820F080702860C7
:10369000FFF742F904464CE0286820F0807028606B
:1036A000FFF73AF9064606E0FFF736F9801B0228D5
:1036B00001D903206FE628688001F5D454F8201F53
:1036C0006068228A401E41EA0010A16807EB52029E
:1036D000090241EA42510843217D07EB510140EACA
:1036E0004160217B40EAC160E968264A11400843F5
:1036F000E86000E062E0286840F080702860E868D8
:1037000040F08070E860FFF707F9044606E0FFF735
:1037100003F9001B022801D903203CE62868800138
:10372000F5D54BE0FFF7F8F8001B022801D903207C
:1037300031E628688001F5D4E86813490840E8605C
:103740003CE0012838D0E868226A00F00301914289
:1037500030D1616A00F0F002491EB2EB011F29D19D
:10376000A26A00F4FE41B1EB022F23D100F07841B0
:1037700094F82C200AE000000010024058000020BD
:10378000007000400C809F01FCFFEEFEB1EBC26FA9
:1037900010D1228E00F4C00107EB5202B1EB425F60
:1037A00008D194F8341000F0C06007EB5101B0EB81
:1037B000416F03D00120EEE50120ECE50020EAE5B1
:1037C00070B50446002C09D0606A002540B125611F
:1037D0006561A56294F85D0040B10CE0012070BD08
:1037E0006068B0F5827FF4D0E561F2E784F85C5060
:1037F000204600F05BF8022084F85D002068016834
:1038000021F040010160E1684FF4E062914201D98A
:10381000002001E04FF48050B1F5706F02D091426A
:1038200000D0A562A188228901F4827102F40442C9
:103830001143227C02F002021143227D02F00102B8
:103840001143228B02F400721143227F02F03802EE
:10385000114394F8202002F080021143228D02F4DB
:103860000052114322681160A169042202EA114149
:1038700094F8242000F4805002F01002114394F8D0
:10388000342002F008021143A28902F4706211434D
:103890000143206841602068C16921F40061C16171
:1038A0002566012084F85D00002070BD10B586B04B
:1038B0000446142101A8FCF788FD2168214C002250
:1038C00021480223A1421DD1016E41F480510166BD
:1038D000016E01F480510091C16C41F00101C1649D
:1038E000C06C00F001000090E02001900293039270
:1038F00004920520059001A94FF09040FEF72AFFA1
:1039000006B010BD114CA142FAD1816D41F40041C5
:103910008165816D01F400410091C16C41F00201AB
:10392000C164C06C00F00200009018200190029366
:10393000039204920620059001A90548FEF70AFFAC
:10394000DEE700000030014000100240003C004073
:10395000000400482DE9FF5F04460E9E93461F4673
:103960000125FEF7D9FF804694F85D0061680128C3
:103970000AD0B1F5827F03D1A16809B9042803D028
:10398000022004B0BDE8F09F019890B3BBF1000F96
:1039900030D038002ED094F85C0001282CD04FF0A5
:1039A000010A84F85CA094F85D00042802D0052088
:1039B00084F85D004FF00009C4F86090C4F840B08E
:1039C000A4F84670A4F844700198A063E787A7871D
:1039D000C4F84C90C4F85090E0684FF4E06188421D
:1039E00001D8012F0AD92068426822F4805242602F
:1039F00009E0FFE70120C4E70220C2E7206842682F
:103A000042F48052426020680268520603D4026881
:103A100042F040020260E068884249D9606808B11B
:103A2000012F3DD1A06B21680088C860A06B801C6D
:103A3000A063E08F401EE08732E02068816889073C
:103A40000DD5E18F59B1012D09D1A16B0988C16054
:103A5000A06B801CA063E08F401EE08700252068DB
:103A60008168C9070ED0B4F8461059B1C068216CFE
:103A70000880206C801C2064B4F84600401EA4F826
:103A800046000125FEF748FFA0EB0800B04207D32F
:103A9000701C05D084F85DA084F85C90032070E76A
:103AA000E08F0028C9D1B4F846000028C5D176E0DF
:103AB000606808B1012F6BD1E08F01280AD9A06B93
:103AC00021680088C860A06B801CA063E08F801E06
:103AD000E0875DE0A06B216800780873A06B401C54
:103AE000A063E08F401EE08752E02068816889076C
:103AF0001AD5E18FC1B1012D16D1E18F012909D964
:103B0000A16B0988C160A06B801CA063E08F801E40
:103B1000E08708E0A16B09780173A06B401CA063EB
:103B2000E08F401EE087002520688168C90726D005
:103B3000B4F8461019B3B4F84610012913D9C06877
:103B400054F8401F08802068801C2060E088801E98
:103B5000E080E088403C012810D82068416841F4AA
:103B6000805141600AE0007B216C0870206C401C91
:103B70002064B4F84600401EA4F846000125FEF774
:103B8000CBFEA0EB0800B04201D3701C13D196B15C
:103B9000E08F0028A9D1B4F846000028A5D14246FC
:103BA0003146204601F082FC58B12020206684F87E
:103BB0005C900120E5E684F85DA084F85C90032029
:103BC000DFE684F85DA084F85C90206E08B10120E7
:103BD000D7E60020D5E670477047704730B590F8BB
:103BE0003C20012A45D0012280F83C20CA680024EC
:103BF0008B6822F440721A434B6822F480621A43A5
:103C00000B6822F400621A430B6922F480521A43B3
:103C10004B6922F400521A430B6B22F480421A4380
:103C20000B8B22F4702242EA0342CB6922F08052CD
:103C30001A43114D0368AB4205D0104DAB4202D080
:103C40000F4DAB4210D10D8D22F4700242EA0552A5
:103C50000D6A22F080722A434D6A22F000722A43D4
:103C6000C96A22F000520A435A6480F83C4000209E
:103C700030BD022030BD0000002C01400034014066
:103C80000050014070477047704700002DE9F04137
:103C900090F83C20012A43D0012580F83C500222B4
:103CA00080F83D2003685A689C681E4E1E4FDFF85E
:103CB0007CC0B34203D0BB4201D0634504D122F49F
:103CC00070084A6842EA0802DFF8648002EA0802E3
:103CD000D1F8008048EA0208C3F804800268B242C2
:103CE00012D0B2F1804F0FD0124B9A420CD0124B2F
:103CF0009A4209D0114B9A4206D0BA4204D0104BD6
:103D00009A4201D0624504D124F0800389681943A6
:103D100091603C304570002101700020BDE8F081C9
:103D20000220FBE7002C014000340140005001401C
:103D30008FFFFFFD0004004000080040000C004021
:103D40000040014010B50446002909D004290AD0DA
:103D500008290BD094F8470001280AD0012010BD93
:103D600094F84400F8E794F84500F5E794F8460025
:103D7000F2E70220A1B3042936D0082937D084F80D
:103D800047000422206801F082FD2068416C41F464
:103D9000004141641A492068884214D0B0F1804F34
:103DA00011D0184988420ED0174988420BD01749C4
:103DB000884208D01649884205D01649884202D068
:103DC0001549884216D18168144A1140062915D038
:103DD000B1F5803F12D0016841F0010101600DE0B2
:103DE000FFE784F84400CCE784F84500C9E784F88D
:103DF0004600C6E7016841F001010160002010BDE6
:103E0000002C01400004004000080040000C00406D
:103E10000034014000400140005001400700010013
:103E200070B504460D4600222946206801F02FFD9A
:103E30002068036A144944F244420B4206D1036AE3
:103E4000134203D1436C23F4004343642068036AA4
:103E50000B4206D1016A114203D1016821F0010130
:103E6000016001203DB1042D08D0082D09D084F84F
:103E70004700002070BD84F84400FAE784F845004C
:103E8000F7E784F84600F4E711111100704710B508
:103E90000446002C03D094F83D0010B107E0012047
:103EA00010BD002084F83C00204600F017F80220E6
:103EB00084F83D00211D206801F06EFC01203D3496
:103EC000E0726070A070E07020716071A071E071AC
:103ED00020726072A0722070002010BD08B50068CA
:103EE0001549B0F1804F14D0144A904223D1886D07
:103EF00040F008008865886D00F0080000900022FE
:103F000005213220FEF7A6FEBDE808403220FEF76C
:103F100093BE886D40F001008865886D00F0010057
:103F20000090002205211C20FEF794FEBDE8084009
:103F30001C20FEF781BE08BD00100240000C0040AE
:103F400090F83D10012901D001207047022180F82E
:103F50003D100168CA6842F00102CA600068154954
:103F6000884214D0B0F1804F11D0134988420ED04E
:103F7000124988420BD01249884208D01149884220
:103F800005D01149884202D0104988420CD181687D
:103F90000F4A114006290BD0B1F5803F08D00168C7
:103FA00041F00101016003E0016841F0010101609D
:103FB00000207047002C0140000400400008004031
:103FC000000C00400034014000400140005001401E
:103FD0000700010070B504460846002594F83C101F
:103FE00001291CD0012684F83C60022184F83D1090
:103FF00021688A68344B1A4022F47F428A60016843
:10400000B1F5005F2FD016DC40294CD009DCD1B1CE
:10401000102918D0202916D030294ED113E00220C3
:1040200070BD50292BD0602933D070290FD0B1F545
:10403000805F42D142E011F00F0F3ED10811A0F590
:104040008030072839D8206801F038FC36E0D0E904
:1040500002134268206801F027FC2068816841F063
:10406000770181602AE0D0E902134268206801F0FC
:104070001BFC2068816841F4804181601EE0C268B9
:104080004168206801F0FAFD5021206801F016FC1B
:1040900014E0C2684168206801F024FE60212068B5
:1040A00001F00CFC0AE0C2684168206801F0E6FDFE
:1040B0004021206801F002FC00E001253C346670DC
:1040C00000202070284670BD88FFCEFF70472DE984
:1040D000F04104462068C66805694FF00007A9074B
:1040E00014D5B10712D5F91E01610120207720688F
:1040F0008069800703D02046FFF7E8FF05E02046EF
:1041000000F004F9204600F0EBF92777680717D58F
:10411000700715D521686FF0040008610220207730
:104120002068806910F4407F03D02046FFF7CEFF5F
:1041300005E0204600F0EAF8204600F0D1F92777A4
:10414000280716D5300714D521686FF008000861DC
:10415000042020772068C069800703D02046FFF73D
:10416000B5FF05E0204600F0D1F8204600F0B8F990
:104170002777E80617D5F00615D521686FF01000EF
:104180000861082020772068C06910F4407F03D0C0
:104190002046FFF79BFF05E0204600F0B7F82046D9
:1041A00000F09EF92777E80708D0F00706D02168CD
:1041B0006FF001000861204600F088FA280601D45B
:1041C000A80408D5300606D521686FF402500861AE
:1041D0002046FFF701FDE80508D5300606D5216821
:1041E0006FF4807008612046FFF7F5FC680608D57B
:1041F000700606D521686FF040000861204600F087
:1042000081FAA80608D5B00606D521686FF020000F
:1042100008612046FFF7E1FCE80208D5F00206D568
:1042200021686FF4801008612046FFF72CFDA8027A
:1042300008D5B00206D521686FF400100861204649
:10424000FFF720FD680208D5700206D521686FF4DB
:10425000800008612046FFF717FD28020AD53002CA
:1042600008D521686FF4000008612046BDE8F041E0
:10427000FFF70CBEBDE8F081F0B587B0044614210D
:1042800002A8FCF7A2F81E492068884236D11D48D2
:10429000C16C41F00201C164C16C01F002010191E5
:1042A000C16C41F00101C164C06C00F001000190DB
:1042B0004FF4C04002900225039500240494059415
:1042C00006260696104F02A93846FEF743FAA903C0
:1042D00002910395049405940420069002A938469F
:1042E000FEF738FA4FF4E0600290039504940594C9
:1042F000069602A94FF09040FEF72CFA07B0F0BDE9
:10430000002C01400010024000040048704770B5C6
:1043100004460D46002694F83C0001280BD00120ED
:1043200084F83C000C2A4FD007DC82B1042A22D04A
:10433000082A06D134E0022070BD102A59D0142A70
:104340006BD00126002084F83C00304670BD294621
:10435000206801F0BDFA2068816941F0080181619F
:104360002068816921F004018161206881692A69DE
:1043700011438161E6E72946206801F003FB2068CC
:10438000816941F4006181612068816921F4806163
:104390008161206881692A6941EA02218161D1E74E
:1043A0002946206801F044FB2068C16941F00801FA
:1043B000C1612068C16921F00401C1612068C1693F
:1043C0002A691143C161BDE72946206801F086FBD7
:1043D0002068C16941F40061C1612068C16921F4AC
:1043E0008061C1612068C1692A6941EA0221C16115
:1043F000A8E72946206801F0C7FB2068016D41F05D
:10440000080101652068016D21F004010165206843
:10441000016D2A691143016594E72946206801F07E
:10442000EFFB2068016D41F4006101652068016DBA
:1044300021F4806101652068016D2A6941EA022149
:1044400001657FE710B50446002C03D094F83D00C9
:1044500010B107E0012010BD002084F83C00204688
:1044600000F018F8022084F83D00211D206801F0BA
:1044700093F901203D34E0726070A070E07020710B
:104480006071A071E07120726072A07220700020D3
:1044900010BD000008B500680F4988421AD10F48C6
:1044A000016E41F400610166006E00F4006000904E
:1044B000002205211820FEF7CDFB1820FEF7BCFBDB
:1044C000002205211920FEF7C5FBBDE80840192090
:1044D000FEF7B2BB08BD0000002C014000100240F6
:1044E0007047000070B5044600290DD004290ED095
:1044F00008290FD00C2910D0102911D094F84300AE
:10450000012810D0012070BD94F83E00F8E794F81F
:104510003F00F5E794F84000F2E794F84100EFE738
:1045200094F84200ECE70220F1B3042949D00829AD
:104530004AD00C294BD010294CD084F843000122DA
:10454000206801F097F928492068284A284B294D0E
:1045500088420BD0904209D0984207D0264EB042F4
:1045600004D0264EB04201D0A84203D1466C46F496
:10457000004646642068884211D0B0F1804F0ED0CA
:104580001F4988420BD01F49884208D01E498842E3
:1045900005D0904203D0984201D0A8421DD1816835
:1045A0001A4A1140062900E008E01AD0B1F5803F10
:1045B00017D0016841F00101016012E084F83E006B
:1045C000BDE784F83F00BAE784F84000B7E784F815
:1045D0004100B4E784F84200B1E7016841F001010D
:1045E0000160002070BD0000002C0140003401403B
:1045F000004001400050014000440140004801409B
:104600000004004000080040000C004007000100CA
:1046100030B504460D4600222946206801F02AF9EB
:10462000244B23482268991182420ED022488242AC
:104630000BD02248824208D02148824205D021482E
:10464000824202D02048824209D1106A184206D123
:10465000106A084203D1506C20F400405064206876
:10466000026A1A4206D1026A0A4203D1016821F0A5
:104670000101016001205DB1042D0CD0082D0DD089
:104680000C2D0ED0102D0FD084F84300002030BD2B
:1046900084F83E00FAE784F83F00F7E784F840002A
:1046A000F4E784F84100F1E784F84200EEE7000007
:1046B000002C014011111100003401400040014064
:1046C00000440140004801400050014010B504463C
:1046D0002068B0F1804F01D108F000FA0749206846
:1046E000884201D106F067FB05492068884203D162
:1046F000BDE81040FEF726BA10BD0000000C0040D7
:1047000000140040704790F88410012918D001214E
:1047100080F884102421C0F8881001680A680B68AA
:1047200023F001030B6022F000510022426603686F
:1047300019602021C0F8881080F88420002070477C
:10474000022070477047704770B5044694F88400A3
:1047500001281DD0012084F884002420C4F888009A
:1047600020680568026822F0010202602068826801
:1047700022F060620A438260204601F0D9FA206884
:1047800005602020C4F88800002084F8840070BDF3
:10479000022070BD70B5044694F8840001281DD035
:1047A000012084F884002420C4F88800206805686B
:1047B000026822F0010202602068826822F06042F2
:1047C0000A438260204601F0B3FA20680560202089
:1047D000C4F88800002084F8840070BD022070BDF9
:1047E00070477047704700002DE9F0410446236888
:1047F000D86919689A6840F60F0500EA0507002F86
:104800000ED185060CD501F0200502F08056354307
:1048100006D0616F00297DD02046BDE8F0410847F1
:1048200000260225002F76D0B54FDFF8D8C21740FA
:1048300001EA0C0C57EA0C0C6DD05FEAC07C0CD07E
:104840005FEAC15C09D54FF0010CC3F820C0D4F871
:10485000903043F00103C4F89030830709D5D307A3
:1048600007D023681D62D4F8903043F00403C4F8E5
:10487000903043070AD5D30708D0256804232B625C
:10488000D4F8903043F00203C4F8903003070CD5FD
:1048900001F020033B4308D0256808232B62D4F89D
:1048A000903043F00803C4F8903003050BD54B015A
:1048B00009D525684FF400632B62D4F8903043F09B
:1048C0002003C4F89030D4F89030002B3CD0800600
:1048D00009D501F0200002F08051084303D0616F38
:1048E00009B120468847D4F89000216889684906B4
:1048F00002D410F0280F2DD0204601F08BFB206849
:104900008068400622D52068083050E8001F21F05A
:10491000400101E018E023E040E80012002AF2D153
:10492000D4F8800068B178498163D4F88000FDF73D
:10493000CBFB002808D0D4F88000816BBDE8F041A3
:1049400008472046FFF74EFFBDE8F0812046FFF7FD
:1049500049FFF9E72046FFF745FFC4F89060F3E709
:10496000E76E012F7DD1C7067BD5CF0679D5102004
:104970001862206880684FF02003400655D5D4F8AF
:1049800080100A68506880B2F0B3B4F85C70874257
:104990003FD9A4F85E000868006880062CD420681F
:1049A00050E8001F21F4807140E80012002AF6D17F
:1049B0002068083050E8001F21F0010140E8001293
:1049C000002AF5D12068083050E8001F21F040018E
:1049D00040E80012002AF5D1C4F88C30E666206861
:1049E00050E8001F21F0100140E80012002AF6D123
:1049F000D4F88000FDF730FB2567B4F85C00B4F80C
:104A00005E10401A81B200E003E02046FFF79AFEF4
:104A10009AE7B4F85C10814296D11068800693D56D
:104A200025672046FFF78EFE8EE734F85C0F61881D
:104A3000401A81B260885C3C002885D0002983D070
:104A4000206850E8002F22F4907240E80027002FE1
:104A5000F6D12B4FFF432068083050E8002F3A4032
:104A600000E016E040E8002CBCF1000FF3D1C4F8E0
:104A70008C30E6666667206850E8002F22F010024E
:104A800040E80023002BF6D125672046FFF75AFEA9
:104A90005AE7C50209D5550207D54FF480101862B0
:104AA0002046BDE8F041FFF79CBE03060CD501F09F
:104AB000800302F40002134306D0A16F0029A7D09F
:104AC0002046BDE8F0410847420606D54A0604D50F
:104AD0002046BDE8F04101F0C7BA020206D54A00FF
:104AE00004D52046BDE8F041FFF77ABEC0018FD55E
:104AF00000298DDA2046BDE8F041FFF724BE000012
:104B00000100001020010004EB5E000810B504460F
:104B1000002C03D0D4F8880010B107E0012010BDAC
:104B2000002084F88400204600F028F82420C4F8EF
:104B300088002068016821F001010160A06A10B1BD
:104B4000204601F019F9204601F0B8FA012813D0E7
:104B50002068416821F4904141602068816821F01B
:104B60002A0181602068016841F00101016020464E
:104B7000BDE8104001F064B9012010BDF0B59BB054
:104B80000446142116A8FBF720FC542101A8FBF7CA
:104B90001CFC3149206888425CD10120019000262C
:104BA000029601A8FEF7F6F808B1FCF787F82B4843
:104BB000016E41F480410166016E01F48041009173
:104BC000C16C41F00201C164C06C00F002000090B1
:104BD000C0201690022017901896199607201A9058
:104BE00016A91F48FDF7B6FD1F4D1E482860182066
:104BF0006860AE60EE6080272F616E61AE6120203C
:104C0000E8612E622846FDF701FB08B1FCF756F873
:104C1000C4F88050AC621348134D143060352860DE
:104C2000192068601020A860EE602F616E61AE618F
:104C3000EE612E622846FDF7E9FA08B1FCF73EF86E
:104C4000E567AC62002205212520FEF703F8252048
:104C5000FDF7F2FF1BB0F0BD00380140001002402C
:104C600000040048080002408023002030B4D0F83F
:104C70008C30202B02D0022030BC7047A9B1A2B1E9
:104C80000023C3660A4C0368A3420BD05B681B0277
:104C900008D5036853E8004F44F0806443E80045BA
:104CA000002DF6D130BC01F091BB0120E4E70000FB
:104CB00000800040704770472DE9F84F04460E46CB
:104CC00015461F46D4F88800202802D00220BDE8EF
:104CD000F88F9EB195B10020C4F890004FF02108E4
:104CE000C4F88880FDF718FE8246A4F85450A4F852
:104CF0005650A068B0F5805F02D003E00120E6E7DF
:104D0000206920B1354600264FF0200925E0002516
:104D1000FAE75346002280212046009701F0A8FBC5
:104D200018B1C4F888900320D1E755B1216815F86F
:104D3000010B8862D4F8880038EA000008D001200E
:104D4000C5E736F8020B2168C0F308008862F1E776
:104D5000B4F85600401EA4F85600B4F856000028D7
:104D6000D7D15346002240212046009701F080FB16
:104D700018B1C4F888900320A9E7C4F888900020EF
:104D8000A5E77047FEE700EB8100006E00F0F840F9
:104D9000704700EB8100006E00F0F84070478068BB
:104DA000C0F3C00070478068C0F3C00070478068DF
:104DB000C0F3000070478068C0F30000704780684F
:104DC000C0F3800070478068C0F380007047C068FF
:104DD00010F4406F01D0002070470120704710B5DB
:104DE00001F0007300EBD3504369C1F30451072471
:104DF0008C40A3438A401343436110BD10B501F0BA
:104E0000007300EBD3504369C1F3045107248C4075
:104E1000A3438A401343436110BD00EB8100016E40
:104E200021F0004111430166704700EB8100016EE3
:104E300021F0004111430166704700002DE9F04167
:104E40009AB0002417941894199420210FA8FBF706
:104E5000BCFA3C216846FBF7B8FA38484FF0A0414D
:104E600001604FF4403141608460C46004610126F8
:104E7000466104258561047744770321016280F847
:104E80002440C462046380F83840C46380F8404022
:104E9000FCF73AFF08B1FBF711FF179417A9274851
:104EA000FCF7D4FA08B1FBF709FF25480F9006205C
:104EB000109011944FF07F08CDF84880139514940A
:104EC0000FA91E48FCF778FB08B1FBF7F7FE1D4F52
:104ED0000F970C2010900FA91848FCF76DFB08B134
:104EE000FBF7ECFE18480F90122010900FA9134802
:104EF000FCF762FB08B1FBF7E1FE00970920019087
:104F000002200290CDF80C800495059408968DF847
:104F100024408DF825408DF8264084200A9080207A
:104F20000B908DF8304069460448FBF70BFF0028D2
:104F300001D0FBF7C3FE1AB0BDE8F081F41F0020DA
:104F400002003004040060080800900C10B5074906
:104F5000054808600846FDF74FF8002803D0BDE873
:104F60001040FBF7ABBE10BD000C024060200020DB
:104F700008B51148816C41F004018164816C01F035
:104F800004010091816C41F001018164806C00F0AA
:104F900001000090002205210B20FDF75BFE0B2095
:104FA000FDF74AFE002205210C20FDF753FEBDE867
:104FB00008400C20FDF740BE0010024010B512481A
:104FC000104901600122426000218160C1600174CA
:104FD000417481740523436182610C23C3610423FE
:104FE000036242628262C262026341638163C1639F
:104FF000FDF774FA002803D0BDE81040FBF75EBE51
:1050000010BD0000006400408820002000B585B07D
:10501000142206496846FBF7BFF90021684606F0EE
:1050200099F90349086005B000BD000008E50008D3
:10503000540000202DE9F04F87B0142102A8FBF79F
:10504000C4F93C48C16C41F00401C164C16C01F079
:1050500004010191C16C41F02001C164C16C01F0F7
:1050600020010191C16C41F04001C164C16C01F0AB
:1050700040010191C16C41F00101C164C16C01F0BA
:1050800001010191C16C41F00201C164C06C00F0EA
:1050900002000190DFF8A0804FF460440022214616
:1050A0004046FDF733FCDFF894904FF48066002211
:1050B00031464846FDF72AFC4FF0904A0022102165
:1050C0005046FDF723FCDFF878B041F624070022B4
:1050D00039465846FDF71AFC029401250395002431
:1050E0000494059402A94046FDF734FB029603950B
:1050F0000494059402A94846FDF72CFB1020029069
:1051000003950494059402A95046FDF723FB0297EA
:1051100003950494059402A95846FDF71BFB0296DB
:105120000394049402A95846FDF714FB07B0BDE8A8
:10513000F08F0000001002400008004800180048EE
:105140000004004810B5134811490160124941603C
:10515000002181600122C260016141618161C16100
:105160000162FDF737FC08B1FBF7A8FD00210948F3
:10517000FDF7D8FB08B1FBF7A1FD00210548FDF7BD
:10518000FEFB002803D0BDE81040FBF797BD10BD23
:1051900000540040EC200020C285B24010B51248F7
:1051A000104901604FF482714160002181604FF429
:1051B0007062C26002220261012242615202826177
:1051C0001822C2610162416281620722C2620163E8
:1051D0004163FEF7F5FA002803D0BDE81040FBF765
:1051E0006DBD10BD003001404021002010B51348B6
:1051F000114901604FF4827141604FF48061816018
:105200004FF4E061C1600021016141614FF400721F
:1052100082611822C2610162416281620722C26218
:10522000016308214163FEF7CBFA002803D0BDE8F3
:105230001040FBF743BD10BD003C0040A4210020FE
:1052400010B598B000241594169417941C210EA83C
:10525000FBF7BBF8342101A8FBF7B7F830482F491A
:10526000016044602021816042F23411C160046118
:1052700044618461FFF7E6F808B1FBF71FFD159460
:105280001694179415A92648FEF700FD08B1FBF700
:1052900015FD60200E900F941094119412941394A5
:1052A000149400220EA91E48FFF731F808B1FBF74D
:1052B00005FD04220EA91A48FFF729F808B1FBF7EB
:1052C000FDFC08220EA91648FFF721F808B1FBF7EC
:1052D000F5FC0C220EA91248FFF719F808B1FBF7EC
:1052E000EDFC019402940394049405944FF400504F
:1052F000069007940894099400030A900B940C9468
:105300000D9401A90648FEF769FC08B1FBF7D6FC2D
:105310000348FEF7B1FF18B010BD0000002C01409B
:105320000822002010B588B0002404940594069447
:10533000079401940294039412484FF08041016055
:105340004460846044F26821C16004618461FEF7B6
:105350009EFD08B1FBF7B2FC4FF48050049004A905
:105360000848FEF737FE08B1FBF7A8FC0194039448
:1053700001A90448FEF78AFC002801D0FBF79EFC37
:1053800008B010BD5422002010B588B00024049449
:1053900005940694079401940294039413481249C7
:1053A00001604460846044F26821C16004618461EA
:1053B000FEF76DFD08B1FBF781FC4FF480500490BF
:1053C00004A90A48FEF706FE08B1FBF777FC019432
:1053D000039401A90548FEF759FC002801D0FBF70A
:1053E0006DFC08B010BD0000000C0040A0220020A1
:1053F00010B51748154901601649416000218160C8
:10540000C16001610C2242618161C161016241623E
:105410008162FFF77BFB08B1FBF750FC00210C48D1
:10542000FFF7B8F908B1FBF749FC00210848FFF77E
:105430008BF908B1FBF742FC0548FFF764F9002837
:1054400003D0BDE81040FBF739BC10BD0038014067
:10545000EC22002080841E00FEE7FEE71049C868A9
:1054600000F00302C868C0F30310401C032A0ED0EA
:105470000C4AB2FBF0F0CA68C2F306225043C96876
:10548000C1F34161491C4900B0FBF1F07047064A85
:10549000B2FBF0F0CA68C2F306225043EFE7000007
:1054A000001002400024F40000127A00F8B504460F
:1054B0000E461546334600224FF4C0512046009553
:1054C00000F026F828B1206E40F02000206603206E
:1054D000F8BD3346002280212046009500F088F870
:1054E00028B1206E40F0200020660320F8BD33462E
:1054F00000224FF4C0612046009500F009F828B161
:10550000206E40F0200020660320F8BD0020F8BD8A
:105510002DE9FC5F04460C9D0E46174698464FF059
:10552000000BCDF800B0FDF7F7F9401BA8EB000524
:10553000FDF7F2F98146D4F800A00AF10C0A2B48D5
:105540000068C0EBC00000EB8000000D68430190D4
:1055500017E0B6F5C06F05D127B99AF800000090A2
:105560009DF80000B8F1FF3F0BD0FDF7D5F9A0EB97
:105570000900A8420DD265B10198A0B30198401E60
:105580000190206880683040B842E2D10020BDE838
:10559000FC9F2068416821F0E00141606068B0F53F
:1055A000827F0BD1A068B0F5004F02D0B0F5806FBC
:1055B00004D12068016821F040010160A06AB0F5C3
:1055C000005F09D12068016821F400510160206862
:1055D000016841F400510160012084F85D0084F805
:1055E0005CB00320D3E7FFE70025CAE76400002092
:1055F0002DE9F84304460F4691461E46089DFDF7E7
:105600008BF9401B351AFDF787F98046274800685B
:10561000C0F3CB30684300900DE0701C0BD0FDF759
:105620007BF9A0EB0800A84210D27DB10098B8B376
:105630000098401E00902068806837EA000032D051
:1056400000204845E9D10020BDE8F8832068416882
:1056500021F0E00141606068B0F5827F0BD1A06865
:10566000B0F5004F02D0B0F5806F04D1206801681A
:1056700021F040010160A06AB0F5005F09D1206807
:10568000016821F4005101602068016841F4005173
:10569000016001205C346070002020700320D3E79B
:1056A000FFE70025C7E70120CBE7000064000020EA
:1056B000012005F0D1FDFBE710B5502080F31188E3
:1056C000BFF34F8FBFF36F8F08F0A4F818B10449F0
:1056D0004FF080500860002080F3118810BD00005A
:1056E00004ED00E000B593B0382105A8FAF76DFE8F
:1056F00014216846FAF769FE0020FDF7DDFA022062
:105700000590C1010891402109910C900D90042150
:105710000E9155210F9110901190129005A8FDF750
:1057200027FE08B1FBF7CAFA0F2000900320019072
:10573000002002900390049004216846FDF7B2FC1B
:10574000002801D0FBF7BAFA13B000BD0248016887
:1057500041F470010160704788ED00E00148FEF7F8
:10576000B6BC0000082200200148FEF7B0BC0000D3
:10577000082200200148FEF7AABC000054220020A5
:105780000148FEF7A4BC0000A02200200148FEF75B
:105790009EBC0000402400202DE9F04F02682C4EF2
:1057A000DFF8B090DFF8B0A0DFF8B0B02C4B2D4C94
:1057B0004FF0804EB0420BD0704509D0484507D01D
:1057C000504505D0584503D0984201D0A04203D19E
:1057D00022F070054A682A43234FDFF890C0DFF8B3
:1057E0009080B04211D070450FD048450DD0504543
:1057F0000BD0584509D0984207D0B84205D0604533
:1058000003D0404501D0A04203D122F44075CA68BC
:105810002A434D6922F080022A438D68C5620D68D3
:105820008562B04209D0984207D0B84205D06045A1
:1058300003D0404501D0A04201D10969016301684C
:1058400041F004010160012141610260BDE8F08F77
:10585000002C01400004004000080040000C004003
:10586000003401400050014000400140004401402C
:105870000048014010B501F01F0101238B40046A6C
:105880009C430462036A8A401343036210BD10B54F
:1058900001F00F0104238B40046A9C430462036AF5
:1058A0008A401343036210BD10B5846824F47F441A
:1058B00042EA03220A432243826010BD8268034BFE
:1058C0001A400A4342F00701816070478FFFCFFF03
:1058D0002DE9F047056A026A22F00102026243687C
:1058E0008269214C224022F003020C68144325F007
:1058F00002058A682A431D4E1D4FDFF878C0DFF885
:105900007880DFF87890DFF878A0B04209D0B8420C
:1059100007D0604505D0404503D0484501D05045EB
:1059200007D1056A25F00405056222F00805CA685A
:105930002A43B04209D0B84207D0604505D040455F
:1059400003D0484501D0504507D123F4807323F498
:1059500000734D691D438B692B4343608461496823
:1059600041630262BDE8F0878FFFFEFF002C01401B
:105970000034014000400140004401400048014023
:1059800000500140F0B5046A026A22F0100202627F
:10599000426883691F4D2B4023F440730D6843EA2E
:1059A000052524F020038C6843EA04131A4C1B4E8F
:1059B0001B4FA04203D0B04201D0B8420BD1D0F867
:1059C00020C02CF0400CC0F820C023F08003D1F898
:1059D0000CC043EA0C13A0420CD0B0420AD0114CC8
:1059E000A04207D0104CA04204D0104CA04201D0DD
:1059F000B84209D122F4806222F400624C6942EA82
:105A000084028C6942EA840242608561496881634C
:105A10000362F0BDFF8FFFFE002C01400034014007
:105A20000050014000400140004401400048014056
:105A3000F0B5056A026A22F4807202624268C369A4
:105A40001F4C234023F003030C681C4325F4007310
:105A50008D6843EA05231B4D1B4E1C4FA84203D003
:105A6000B04201D0B8420BD1D0F820C02CF4806CE9
:105A7000C0F820C023F40063D1F80CC043EA0C2323
:105A8000A8420CD0B0420AD0114DA84207D0114D07
:105A9000A84204D0104DA84201D0B84209D122F446
:105AA000805222F400524D6942EA05128D6942EAA1
:105AB00005124260C4614968C1630362F0BD000021
:105AC0008FFFFEFF002C01400034014000500140D8
:105AD000004001400044014000480140F0B5046A24
