:020000040800F2
:10000000103E0120C10004082D2800088B2500089F
:100010007125040851070008E92A040800000000BF
:1000200000000000000000000000000001000408C3
:1000300011060408000000005D000408C128000843
:10004000DB000408DB000408DB000408DB00040814
:10005000DB000408DB000408DB000408DB00040804
:10006000DB000408DB000408DB0004086D0700085F
:10007000DB000408B9050408DB0004087907000860
:10008000C5050408DB000408CD050008AD0504081B
:1000900055070008A105040861070008DB000408F3
:1000A000DB00040809290008DB000408DB00040861
:1000B000DB000408DB000408DB000408DB000408A4
:1000C000DB000408DB000408DB000408DB00040894
:1000D000DB000408A12F0008DB000408DB00040893
:1000E000DB000408DB000408DB000408DB00040874
:1000F000DB00040805270408DB000408DB00040813
:10010000DB000408DB000408DB0004087525040894
:10011000192B0008DB000408DB000408DB000408DE
:1001200085070008DB000408D1050408DB0004088B
:10013000DB0004080000000000000000DB000408F1
:10014000DB000408DB000408DB000408DB00040813
:10015000DB000408DB00040891070008DB0004084A
:10016000DB000408DB000408DB000408DB000408F3
:10017000DB000408DB0004080000000000000000B1
:10018000DB000408DB000408DFF810D000F0B2F94F
:10019000004800478D5D0408AFF30080103E012049
:1001A000D2B201E000F8012B491EFBD270470022B9
:1001B000F6E710B513460A4604461946FFF7F0FF66
:1001C000204610BD10B5044604E00B7800F8013B52
:1001D00003B1491C521EF8D2204610BD30B50B4663
:1001E000014600202022012409E021FA02F59D4267
:1001F00005D303FA02F5491B04FA02F52844151E3B
:10020000A2F10102F1DC30BD202A04DB203A21FA00
:1002100002F00021704721FA02F3D040C2F120021F
:1002200091400843194670470029A8BF7047401CF9
:10023000490008BF20F00100704710B4B0FA80FCFC
:1002400000FA0CF050EA010404BF10BC704749B139
:10025000CCF1200421FA04F411FA0CF118BF0121A9
:1002600021430843A3EB0C01CB1D4FEA00614FEA89
:10027000102042BF002010BC704700EBC350104458
:100280000029A4BF10BC7047401C490008BF20F0E3
:10029000010010BC70472DE9FE4F804681EA030043
:1002A000C00F0C46009021F0004123F00045B8EB50
:1002B0000200A94105D24046214690461C460B4605
:1002C000024623F00040104347D0270DC7F30A0031
:1002D000C3F30A510290401A019040286BDAC3F32D
:1002E000130040F4801B0098924620B10023D2EB0B
:1002F000030A63EB0B0B01985946C0F140025046CC
:100300003FF052FF06460D4650465946019A00F00E
:1003100003F910EB08006141002487EA115284EAD6
:10032000E7731A4340D0009A62B3019A012A4FEA58
:10033000075215DC001B61EB02014FF0004202EA9C
:100340000752CDE90042001C41F5801132462B4690
:1003500040F00DF803B0BDE8F08F40462146F9E7C4
:10036000001B61EB0201001C41F5801300185B418A
:100370002018A2F5001747EB030140EAD570B61923
:100380006D4111E06D084FEA360645EAC0754FEA47
:100390000752001B61EB0201001C41F58011490866
:1003A0004FEA30000019514132462B4603B0BDE8F8
:1003B000F04F3FF0CDBF0098012240000023D0EB6A
:1003C000020263EBE073009821464FEAE074B8EB59
:1003D000000061EB0401E9E783F000435BE781F093
:1003E000004158E72DE9F04D81EA030404F0004B89
:1003F00021F0004514464FF0000A23F0004150EA76
:10040000050220D054EA01021DD0C5F30A57024666
:10041000C5F31303C1F31300C1F30A5640F480156A
:1004200043F48013A7EB0608101BD64608F2FD38EC
:1004300073EB050002D308F1010801E092185B415B
:10044000B8F1000F03DA00200146BDE8F08D00206E
:100450004FF48011064684460EE0171B73EB050728
:1004600005D3121B63EB050306434CEA010C490854
:100470004FEA300092185B4150EA0107EDD152EA91
:10048000030012D082EA040083EA0501084305D084
:10049000101BAB4106D20122002306E000224FF0E0
:1004A000004302E06FF0010253101AEB06004CEB20
:1004B000085110EB0A0041EB0B01BDE8F04D3FF095
:1004C00047BFC1F30A52C1F3130140F2FF3341F4B5
:1004D00080119A4202DA00200146704740F233430D
:1004E0009A42A2F2334202DC5242FFF78DBE3FF045
:1004F0005BBE0000064C074D06E0E06840F00103DB
:1005000094E8070098471034AC42F6D3FFF740FE5A
:1005100088D10008A8D10008202A06DBCB17203A92
:1005200041FA02F043EAE07306E041FA02F3D040F8
:10053000C2F1200291400843194670479FED201AEE
:100540009FED202A20EE010ABDEEC01A11EE100A1E
:10055000B5EE400AF1EE10FAB8BF013801EE100A0C
:10056000B8EEC11A30EE410A20EE020ABDEEC01A02
:100570009FED152A11EE100A002130EE021AB1EBA0
:10058000502F4BF6B8111CBF0020B0EE410AC0F648
:10059000040101EE100A01EB8001B8EE411A30EEC1
:1005A000410A91ED001A91ED012AB7EE003A33EEBF
:1005B000403A23EE011A20EE020A31EE000A70479B
:1005C00083F9223E00000044000000C410B5054835
:1005D00000F015FB044800F012FBBDE81040034892
:1005E00000F00DBBF43001203C31012084310120AA
:1005F00055494A6822F440324A604A6843681A43BF
:100600004A600268526822F4807203685A60026885
:100610005368026943EA022203685A60026852681A
:1006200022F0407203685A600268526883681A4375
:1006300003685A600268926822F4006203689A6054
:1006400002689268C3681A4303689A603F4B826AE3
:100650009A4218D00268926822F0706203689A6029
:1006600002689268836A1A4303689A600268926813
:1006700022F0405203689A6002689268C36A1A4383
:1006800003689A600BE00268926822F07062036867
:100690009A600268926822F0405203689A60026889
:1006A000926822F0020203689A6002689368027EF0
:1006B00043EA420203689A602022125CA2B10268F7
:1006C000526842F4006203685A600268526822F479
:1006D000604203685A6002685368426A521E43EAE5
:1006E000423203685A6005E00268526822F40062F0
:1006F00003685A600268D26A22F470020368DA6200
:100700000268D36A828B521E43EA02520368DA629D
:100710000268926822F4007203689A600268936823
:1007200090F8302043EA422203689A600268926897
:1007300022F4806203689A6002689368426943EA1F
:10074000822203689A607047002301400100000F75
:10075000FEE70000014800F0AFBC00002C32012091
:10076000014800F0A9BC00002C320120014800F033
:100770003BBE00000C330120014800F035BE0000F4
:10078000A4340120014800F02FBE0000CC3101202C
:10079000014800F029BE0000643501200146002018
:1007A0008A6A8B69CBB932B1012A0DD0022A03D0F3
:1007B000032A10D10EE000BFCB6A03F08073B3F1BF
:1007C000807F00D1012007E0CB6AB3F1C07F00D168
:1007D000012001E000E000BF34E08B69B3F5005F69
:1007E0001AD132B1012A07D0022A03D0032A11D12B
:1007F0000AE000BF01200EE0CB6A03F08073B3F182
:10080000807F00D1012006E0CB6AB3F1C07F00D128
:10081000012000E000BF15E032B1012A05D0022A14
:1008200004D0032A0CD103E000BF00BF012008E080
:10083000CB6A03F08073B3F1807F00D1012000E028
:1008400000BF00BF704730B50468246824F48024DA
:1008500005682C60046863608468402C04D10468D7
:10086000A2600468E16003E00468A1600468E260DB
:1008700030BD72B6FEE7000010B5002201B909E0F4
:10088000012901D10A0205E0022901D10A0201E091
:100890004FF440720E4B1B6823F440730C4C2360E2
:1008A00023461B681343236023461B6823F0780309
:1008B000236023461B68022444EAC0042343044CFB
:1008C000236023461B6843F48033236010BD00007F
:1008D000103C0240074A126822F44072054B1A602D
:1008E0001A4612681A601A46126842F001021A602B
:1008F00001707047103C024010B50A49096821F4A4
:100900004071084C21602146096841F44071216022
:100910002146096841F0010121600260BFF36F8F39
:10092000436010BD103C0240084A126822F4407235
:10093000064B1A601A46126842F480721A601A4610
:10094000126842F001021A6001807047103C0240B8
:1009500038B50146002000900022002300BF91F826
:100960003C00012801D1022038BD012081F83C0063
:1009700000BF0868806800F00100A0B908688068BE
:1009800040F001000D68A86035480068354DB0FBA7
:10099000F5F000EB4000009002E00098401E00904F
:1009A00000980028F9D10868806800F0010000284C
:1009B0004BD0086C42F20105A84340F48050086413
:1009C000086C00F4807008B90020486400BF002063
:1009D00081F83C0000BF401F0D682860224C606811
:1009E00000F01F00B0B90868806800F4401008B932
:1009F000012000E00020024608684068012525EA41
:100A000090230AB303B30868806840F480000D683F
:100A1000A86022E00868806800F4401008B901204E
:100A200000E00020024608684068012525EA90237E
:100A30000E4D0868A84210D132B12BB10868806809
:100A400040F480000D68A86007E0086C40F01000DA
:100A50000864486C40F001004864002084E700000E
:100A60000801002040420F00002301400020014007
:100A700038B502460020009000BF92F83C000128E3
:100A800001D1022038BD012082F83C0000BF086877
:100A9000092816D91068C0680C780A3C04EB440594
:100AA0000724AC40A0431468E0600C780A3C04EBD7
:100AB00044048868A0401468E46820431468E06037
:100AC00013E0106800690C7804EB44050724AC407F
:100AD000A043146820610C7804EB44048868A040AB
:100AE000146824692043146820614868072817D2D5
:100AF0001068406B0C79641E04EB84051F24AC4025
:100B0000A04314686063088880B20C79641E04EB0B
:100B10008404A0401468646B20431468606331E06F
:100B200048680D2817D21068006B0C79E41F04EB9D
:100B300084051F24AC40A04314682063088880B259
:100B40000C79E41F04EB8404A0401468246B204358
:100B50001468206316E01068C06A0C790D3C04EB41
:100B600084051F24AC40A0431468E062088880B26A
:100B70000C790D3C04EB8404A0401468E46A204323
:100B80001468E062194B1A4C1068A04206D108683C
:100B9000122803D1586840F480005860144C106843
:100BA000A0421CD10868102802D00868112816D16C
:100BB000586840F400005860086810280FD10D48AC
:100BC00000680D4CB0FBF4F000EB8000400000909A
:100BD00002E00098401E009000980028F9D100BF64
:100BE000002082F83C0000BF00BF4BE7002301401B
:100BF000002001400801002040420F0070472DE90D
:100C0000F041044600250026206807682068D0F8D7
:100C1000048007F0020508F0200695B38EB3206C1F
:100C200000F0100018B9206C40F4007020642068B7
:100C3000806800F04050E8B9207ED8B92068C06ACA
:100C400000F4700020B12068806800F4806088B9EA
:100C50002068406820F0200021684860206C20F463
:100C600080702064206C00F4805018B9206C40F033
:100C70000100206420463FF002FF6FF0120021685F
:100C8000086007F0040508F08006E5B3DEB3206CC9
:100C900000F0100018B9206C40F400502064206867
:100CA000806800F4401038BB2068806B00F440106E
:100CB00020B12068806800F48060E8B9206840684E
:100CC00000F48060C0B92068806800F0405098B996
:100CD000207E88B92068406820F080002168486044
:100CE000206C20F480502064206C00F4807018B9CF
:100CF000206C40F00100206420463FF085FE6FF03C
:100D00000C002168086007F0010508F0400685B175
:100D10007EB12068006800F0010050B1206C40F402
:100D200080302064204600F01BF86FF0010021683D
:100D3000086007F0200508F080667DB176B1606C30
:100D400040F0020060646FF02000216808602046D7
:100D50003FF096FE6FF0200021680860BDE8F0814A
:100D6000704700002DE9F04387B006460024029446
:100D700003940494059406943068594A594903250C
:100D8000594B6027DFF86481A0F180494FF0230CB4
:100D9000B9F5903933D0564EB0427AD1106840F44C
:100DA00000701060106800F400700190086840F056
:100DB00004000860086800F004000190086840F032
:100DC00001000860086800F001000190CDF808C03B
:100DD000039502A9184600F0A9FC02970395049414
:100DE00002A9404600F0A2FC00220521122040F09A
:100DF0000BF9122040F0F4F807B0BDE8F08310685A
:100E000040F480701060106800F4807001900868F1
:100E100040F004000860086800F0040001900868D1
:100E200040F001000860086800F001000190CDF872
:100E300008C0039502A9184600F078FC02970395B4
:100E4000049402A9404600F071FC2B4D294828600B
:100E50006C60AC60EC600015286140006861800047
:100E6000A8614011E8612C626C6228463FF056FF91
:100E700008B1FFF7FEFCB563AE6300220521122026
:100E800040F0C2F8122040F0ABF807B0BDE8F083A4
:100E9000FFE7A0F1804CBCF5913CF6D1106840F41E
:100EA00080601060106800F480600190086840F075
:100EB00004000860086800F00400019002950395A2
:100EC00002A9184600F032FC00220521122040F051
:100ED0009BF8122040F084F807B0BDE8F0830000D2
:100EE000443802403038024000080240000002400E
:100EF0000021014010640240CC3101202DE9F8436B
:100F000004460D46164600200090804600BF94F827
:100F10003C00012802D10220BDE8F883012084F8BA
:100F20003C0000BF2068806800F00100A0B9206884
:100F3000806840F001002168886056480068564982
:100F4000B0FBF1F000EB4000009002E00098401E82
:100F5000009000980028F9D12068806800F4807023
:100F6000B0F5807F05D12068806820F4807021680A
:100F700088602068806800F0010000287FD0206C25
:100F800040F20161884340F480702064206840682A
:100F900000F4806028B1206C20F4005040F48050B0
:100FA0002064206C00F48050B0F5805F04D1606C48
:100FB00020F00600606401E00020606400BF0020B3
:100FC00084F83C0000BF354F3548A16BC8633548F5
:100FD000A16B08643448A16BC8646FF022002168DB
:100FE00008602068406840F08060216848602068A0
:100FF000806840F4807021688860226802F14C01AA
:1010000033462A46A06B00F00FFB8046786800F05C
:101010001F0018BB25492068884213D02449206846
:10102000884204D1381D006800F01F0050B12149EA
:10103000206888422BD11948001D006800F01F006D
:10104000102824D22068806800F04050F8B9206849
:10105000806840F080402168886018E0134920686B
:10106000884214D12068806800F0405078B9206828
:10107000806840F080402168886008E0FFE7206CCD
:1010800040F010002064606C40F001006064404655
:1010900042E700000801002040420F000023014009
:1010A000F9040408910504087705040800200140AC
:1010B00000210140002201402DE9F05F0446002597
:1010C000206846692068D0F8049020688768206806
:1010D000D0F80CA02068D0F810B02068D0F81880A4
:1010E00006F00100002855D007F00100C0B1012032
:1010F0002168886007F0020018B1204600F006F968
:101100000EE007F0040010B145F4006508E007F0B8
:10111000080010B145F4805502E020463FF0FAFD8A
:1011200007F48070C8B14FF480702168886007F4BC
:10113000007018B1204600F0EAF80EE007F4806075
:1011400010B145F4005508E007F4006010B145F413
:10115000804502E020463FF0DEFD07F48030C8B154
:101160004FF480302168886007F4003018B12046C1
:1011700000F0CEF80EE007F4802010B145F40045F1
:1011800008E007F4002010B145F4803502E0204665
:101190003FF0C2FD06F0080038B10AF0100020B19F
:1011A00045F4007510202168C86006F0040040B1C5
:1011B0000AF0080028B108202168C860204600F025
:1011C000A2F806F0020038B12068C06800F0030001
:1011D00010B120463FF09CFD06F0400038B10BF006
:1011E000100020B145F4806510202168086106F0E8
:1011F000200040B10BF0080028B1082021680861E8
:10120000204600F081F806F0100038B1206800692F
:1012100000F0030010B120463FF07BFD06F40030E3
:1012200040B109F0100028B1102021684860204624
:1012300000F06BF806F4803040B109F0080028B1E6
:1012400008202168486020463FF067FD06F4004012
:1012500088B309F0040078B306F4807020B108F078
:10126000010008B145F0010506F4007020B108F056
:10127000020008B145F0020506F4806020B108F0D4
:10128000040008B145F0040506F40060A0B108F0C0
:10129000700088B108F07000402817D006DC1028D4
:1012A0000BD020280CD0302819D10CE0502810D0B9
:1012B000602814D110E01DE019E045F008050FE0AA
:1012C00045F010050CE045F0200509E045F040052B
:1012D00006E045F0800503E045F4807500E000BFBE
:1012E00000BF2068806920F07000216888610420B8
:1012F000216848602DB1606A2843606220463FF053
:10130000F5FBBDE8F09F7047704770477047704726
:10131000704770B50446A56D3FF014FE064694F87C
:101320003500022808D08020606500BF002084F8C6
:10133000340000BF012070BD2068006820F0160056
:10134000216808602068406920F0800021684861B9
:10135000206C08B9A06C28B12068006820F0080053
:10136000216808602068006820F00100216808609A
:1013700010E03FF0E7FD801B05280BD920206065B9
:10138000032084F8350000BF002084F8340000BF3B
:101390000320D0E72068006800F001000028E8D1B1
:1013A00094F85C103F208840A860012084F8350044
:1013B00000BF002084F8340000BF00BFBBE7014637
:1013C00091F83500022803D080204865012070473D
:1013D000052081F835000868006820F001000A68DF
:1013E00010600020F3E70000F8B5044600200090EC
:1013F0008C4800684FF41651B0FBF1F7A56D2E68CC
:1014000094F85C1008208840304098B1206800684B
:1014100000F0040070B12068006820F0040021682A
:10142000086094F85C1008208840A860606D40F067
:101430000100606594F85C1001208840304068B17C
:101440002068406900F0800040B194F85C100120F1
:101450008840A860606D40F00200606594F85C1000
:1014600004208840304068B12068006800F0020025
:1014700040B194F85C1004208840A860606D40F092
:101480000400606594F85C1010208840304078B308
:101490002068006800F0080050B394F85C10102039
:1014A0008840A8602068006800F4802080B120682F
:1014B000006800F4002028B9206CC8B12046216CD7
:1014C000884715E0A06C98B12046A16C88470FE0D2
:1014D0002068006800F4807028B92068006820F057
:1014E000080021680860206C10B12046216C8847F4
:1014F00094F85C10202088403040002865D0206897
:10150000006800F0100000285FD094F85C102020E4
:101510008840A86094F83500052828D12068006824
:1015200020F01600216808602068406920F08000E3
:1015300021684861206C08B9A06C28B12068006857
:1015400020F008002168086094F85C103F20884073
:10155000A860012084F8350000BF002084F8340022
:1015600000BF206D10B12046216D8847F8BD20686E
:10157000006800F4802080B12068006800F400203A
:1015800028B9606C10B12046616C88471DE0E06BA3
:10159000D8B12046E16B884717E02068006800F466
:1015A000807068B92068006820F010002168086029
:1015B000012084F8350000BF002084F8340000BF0B
:1015C000E06B10B12046E16B8847606D38B3606D09
:1015D00000F00100F0B1052084F8350020680068B3
:1015E00020F001002168086000BF0098401C0090B6
:1015F000B84200D905E02068006800F0010000282A
:10160000F3D100BF012084F8350000BF002084F82A
:10161000340000BFE06C10B12046E16C884700BF89
:10162000A4E70000080100202DE9F04704460D461C
:1016300016461F464FF00008D4F8589000BF94F8A3
:101640003400012802D10220BDE8F087012084F88F
:10165000340000BF94F83500012825D1022084F819
:101660003500002060653B46324629462046FFF79C
:10167000EAF894F85C103F208840C9F80800206818
:10168000006840F0160021680860206C28B12068CE
:10169000006840F00800216808602068006840F099
:1016A00001002168086006E000BF002084F83400D3
:1016B00000BF4FF002084046C6E7000070B5044680
:1016C0003FF040FC06462546681C10B104480078EF
:1016D000054400BF3FF036FC801BA842FAD370BD22
:1016E000040100200348006840F000400149086000
:1016F00000207047103C024000200949096801F0B1
:10170000004159B10749064A0C3A11600649116077
:101710000349096801F0004101B101207047000050
:10172000103C024023016745AB89EFCDF8B5024676
:101730000B460025002400200021D6E0012606FAF1
:1017400001F51E6806EA0504AC4274D11E7906F064
:101750000306012E04D01E7906F00306022E13D1D3
:1017600090684F000326BE40B0434F00DE68BE4085
:1017700030439060506801268E40B0431E79C6F316
:1017800000168E40304350601E7906F00306032E8B
:1017900009D0D0684F000326BE40B0434F009E687A
:1017A000BE403043D0601E7906F00306022E13D1EE
:1017B000CF0802F1200656F827004E07F70E0F2635
:1017C000BE40B0434F07FF0E1E69BE403043CF08F6
:1017D00002F1200646F8270010684F000326BE409D
:1017E000B0431E7906F003064F00BE403043106040
:1017F0005E6806F44036002E76D000BF00260096C4
:101800003C4E366846F480463A4F3E603E46366867
:1018100006F48046009600BF00BF374E8F0856F88A
:1018200027008E07370F0F26BE40B043334EB2421B
:1018300002D1002624E057E0314EB24201D1012608
:101840001EE0304EB24201D1022619E02E4EB242C5
:1018500001D1032614E02D4EB24201D104260FE03F
:101860002B4EB24201D105260AE02A4EB24201D1E6
:10187000062605E0284EB24201D1072600E00826E0
:101880008F073F0FBE4030431B4E8F0846F827009E
:10189000224E3068A0435E6806F4801606B12043ED
:1018A0001E4E3060361D3068A0435E6806F4001698
:1018B00006B12043194E361D3060184E361F306871
:1018C000A0435E6806F4003606B12043134E361F6F
:1018D0003060361F3068A0435E6806F4803606B17B
:1018E00020430E4E083E3060491C1029FFF426AFFD
:1018F000F8BD0000443802400838014000000240B2
:101900000004024000080240000C024000100240A7
:101910000014024000180240001C0240083C014034
:101920000AB1816101E00B048361704730B587B073
:10193000054600241E48016841F48071016000687A
:1019400000F48070009001A902A800F04FF80598FB
:10195000A8B13FF05FFC40001649B0FBF1F0411E1A
:101960001648154A026040F2E732C26041600461E5
:101970008460846140F0FAF904461CB115E03FF040
:1019800049FCE9E70D4800F079F904466CB92D20CF
:101990003FF026FB102D07D2002229462D203FF0D4
:1019A00033FB0748056000E0012407B0204630BD46
:1019B0004038024040420F0000200040C435012062
:1019C0000001002000BF00F00702064B19684FF627
:1019D000FF031940044B0B4343EA0221014B1960FA
:1019E00000BF70470CED00E00000FA050F22026016
:1019F0000D4A126802F0030242600B4A126802F0BC
:101A0000F0028260084A126802F4E052C260064A9C
:101A1000126802F46042D2080261044A126802F0BD
:101A200007020A607047000008380240003C02408C
:101A300000B53FF0E9FB04490968C1F34231034AAC
:101A4000515CC84000BD00000838024080D1000849
:101A5000704700002DE9F04786B005460024019448
:101A600002940394049405942868A0F18041B1F590
:101A700070515CD12F48016841F400410160006859
:101A800000F4004000902C48016841F0040101601E
:101A9000006800F0040000904FF4E0500190022034
:101AA0000290032004900620059001A92348FFF727
:101AB0003DFE244E2248306074604020B060F460E7
:101AC000070137614FF40068C6F814804FF40059DD
:101AD000C6F81890F4614FF4803AC6F820A07462FA
:101AE00030463FF01BF908B1FEF7C3FEAE64B563A4
:101AF000164E154830607460B460F4603761C6F803
:101B00001480C6F81890F461C6F820A074623046BC
:101B10003FF004F908B1FEF7ACFEEE64B5630022B5
:101B2000052133203FF070FA33203FF059FA06B018
:101B3000BDE8F087403802403038024000080240DB
:101B400088600240AC320120106002400C3301205A
:101B5000704710B50346002200BF93F83C000128EF
:101B600001D1022010BD012083F83C0000BF22F00B
:101B7000FF00CC6840EA040222F440708C6840EA1E
:101B8000040222F480604C6840EA040222F40060FF
:101B90000C6840EA040222F480500C6940EA040216
:101BA00022F400504C6940EA040222F48040CC69DF
:101BB00040EA04021868426400BF002083F83C0039
:101BC00000BF00BFCEE7000030B502460B4600BFA5
:101BD00092F83C00012801D1022030BD012082F89A
:101BE0003C0000BF022082F83D0010684468106885
:101BF000816824F070041868044310684460184D2C
:101C00001068A8421BD01068B0F1804F17D0154D56
:101C10001068A84213D0144D1068A8420FD0134D7D
:101C20001068A8420BD0124D1068A84207D0114D81
:101C30001068A84203D0104D1068A84205D121F0C9
:101C400080015868014310688160012082F83D00DE
:101C500000BF002082F83C0000BF00BFBDE70000CD
:101C6000000001400004004000080040000C00405B
:101C7000000401400040014000180040014691F876
:101C80003D00012801D001207047022081F83D006D
:101C90000868C06840F001000B68D8601A4B0868FB
:101CA00098421BD00868B0F1804F17D0174B0868D6
:101CB000984213D0164B086898420FD0154B08680D
:101CC00098420BD0144B0868984207D0134B086811
:101CD000984203D0124B086898420CD1086880687B
:101CE00000F00702062A0CD00868006840F00100E6
:101CF0000B68186005E00868006840F001000B6898
:101D000018600020C0E7000000000140000400400F
:101D100000080040000C0040000401400040014069
:101D2000001800402DE9F04104460D46002700BF91
:101D300094F83C00012802D10220BDE8F081012086
:101D400084F83C0000BF022084F83D0020688668CB
:101D500026F0770626F47F4620688660286850289B
:101D600033D00CDC202850D004DC00284BD01028C5
:101D700051D149E0302849D040284CD139E0602881
:101D80002DD0702807D0B0F5805F03D0B0F5005F8C
:101D900041D10DE041E0D5E902136A68206840F0C6
:101DA00038FD2068866846F077062068866034E053
:101DB000D5E902136A68206840F02BFD206880682E
:101DC00040F480402168886027E0EA6869682068FC
:101DD00000F08EFE5021206840F026FD1DE0EA68EC
:101DE0006968206840F029FD6021206840F01CFDF2
:101DF00013E0EA686968206800F07AFE40212068F4
:101E000040F012FD09E000BF00BF00BF2968206854
:101E100040F00AFD01E0012700BF00BF012084F867
:101E20003D0000BF002084F83C0000BF384684E736
:101E3000704770B504462068C5682068066906F0DA
:101E40000200022819D105F00200022815D1401F16
:101E500021680861012020772068806900F0030074
:101E600018B12046FFF7E4FF05E0204640F00EF8E9
:101E7000204640F03FF80020207706F004000428B8
:101E800019D105F00400042815D1C0432168086168
:101E9000022020772068806900F4407018B1204645
:101EA000FFF7C6FF05E020463FF0F0FF204640F078
:101EB00021F80020207706F00800082819D105F045
:101EC0000800082815D1C043216808610420207744
:101ED0002068C06900F0030018B12046FFF7A8FF92
:101EE00005E020463FF0D2FF204640F003F80020F6
:101EF000207706F01000102819D105F010001028E6
:101F000015D1C04321680861082020772068C06986
:101F100000F4407018B12046FFF78AFF05E0204624
:101F20003FF0B4FF20463FF0E5FF0020207706F0A9
:101F3000010048B105F0010030B16FF001002168E7
:101F40000861204640F0B2F806F08000802809D1F0
:101F500005F08000802805D1C04321680861204633
:101F60003FF044FE06F04000402809D105F0400053
:101F7000402805D1C04321680861204600F092F84E
:101F800006F02000202809D105F02000202805D1E6
:101F9000C043216808612046FFF7DAFD70BD2DE9D6
:101FA000F04104460D461646002700BF94F83C0059
:101FB000012802D10220BDE8F081012084F83C0014
:101FC00000BF36B1042E1BD0082E31D00C2E5ED1AE
:101FD00045E02946206800F0AFFC2068806940F0A9
:101FE0000800216888612068806920F00400216869
:101FF000886120688069296908432168886148E010
:102000002946206800F0D0FC2068806940F4006018
:10201000216888612068806920F480602168886177
:1020200020688069296940EA01202168886130E0E0
:102030002946206800F0F6FC2068C06940F00800DE
:102040002168C8612068C06920F004002168C86167
:102050002068C069296908432168C86119E02946D8
:10206000206800F01BFD2068C06940F40060216812
:10207000C8612068C06920F480602168C861206858
:10208000C069296940EA01202168C86101E001278F
:1020900000BF00BF00BF002084F83C0000BF3846EE
:1020A00089E77047704770472DE9F84F044620686C
:1020B00005682068C668206847694FF00009CA466D
:1020C00005F00F09B9F1000F0AD105F0200038B171
:1020D00006F0200020B1204640F088FCBDE8F88FD3
:1020E000B9F1000F7CD007F0010018B906F4907028
:1020F000002875D005F0010030B106F4807018B1E9
:10210000606C40F00100606405F0040030B107F03D
:10211000010018B1606C40F00200606405F002003C
:1021200030B107F0010018B1606C40F00400606449
:1021300005F0080048B106F0200010B907F00100D2
:1021400018B1606C40F008006064606C002846D0F4
:1021500005F0200028B106F0200010B1204640F024
:1021600045FC20684069C0F3801A606C00F00800EC
:1021700010B9BAF1000F2DD0204640F0DEFB2068E8
:10218000406900F04000402820D100BF00BF216816
:10219000143151E8001F21F040002168143141E85A
:1021A0000002002AF3D100BFE06B50B17F48E16B21
:1021B0000865E06BFFF703F988B1E06B016D8847B4
:1021C0000DE02046FFF76FFF09E009E02046FFF72A
:1021D0006AFF04E02046FFF766FF002060647DE7A9
:1021E000206B012878D105F01000002874D006F08B
:1021F00010000028FAD000BF00200090206800687E
:10220000009020684068009000BF00BF20684069CF
:1022100000F04000402870D1E06B006840681FFA71
:1022200080F8B8F1000F58D0A08D404555DDA4F8D6
:102230002E80E06BC069B0F5807F43D000BF00BF47
:1022400021680C3151E8001F21F4807021680C31A5
:1022500041E80002002AF3D100BF00BF00BF21689F
:10226000143151E8001F21F001002168143141E8C8
:102270000002002AF3D100BF00BF00BF2168143163
:1022800051E8001F21F040002168143141E80002AC
:10229000002AF3D100BF202084F8420000202063F0
:1022A00000BF00BF21680C3151E8001F21F0100071
:1022B00021680C3141E80002002AF3D100BFE06B35
:1022C000FFF727F802206063A08DE28D801A81B2AB
:1022D00020463FF0F4FE0EE052E0A08D40450AD1CA
:1022E000E06BC069B0F5807F05D102206063A18DED
:1022F00020463FF0E4FEF1E6FFE7A08DE18D401AB5
:102300001FFA80F8E08DD0B3B8F1000F37D000BFCE
:1023100000BF21680C3151E8001F21F49070216842
:102320000C3141E80002002AF3D100BF00BF00BF1A
:102330002168143151E8001F21F001002168143197
:1023400041E80002002AF3D100BF202084F84200B7
:102350000020206300BF00BF21680C3151E8001F3E
:1023600021F0100021680C3141E80002002AF3D16D
:1023700000BF02206063414620463FF0A0FEADE66C
:1023800005F0800030B106F0800018B1204600F062
:1023900091FDA3E605F0400030B106F0400018B111
:1023A000204640F000FB99E600BF97E64D2B000861
:1023B0002DE9F04F87B0044600250295039504955A
:1023C00005950695206802266249B706A0F180426D
:1023D0004FF003094FF4807A4FF48068B2F59842C9
:1023E00057D0A0F18042B2F588324FD15A480268E6
:1023F00042F010020260006800F0100001900868CE
:1024000040F002000860086800F002000190C0205F
:1024100002900396CDF814900720069002A94F4829
:10242000FFF784F94F4E4E4830607760B560F56035
:10243000C6F810807561B561C6F81CA0356275627A
:1024400030463EF06BFC08B1FEF713FAE663B46366
:10245000464E4548306077604020B060F560C6F871
:1024600010807561B561F5613562756230463EF088
:1024700055FC08B1FEF7FDF9A663B46300220521FF
:1024800025203EF0C1FD25203EF0AAFD07B0BDE8A5
:10249000F08F3748026842F400220260006800F4BE
:1024A00000200190086840F001000860086800F012
:1024B000010001900120029003960496CDF814903B
:1024C0004FF0080BCDF818B002A92A48FFF72EF9F3
:1024D000029603960495CDF81490CDF818B002A991
:1024E0002448FFF723F9254E234830607760B56014
:1024F000F560C6F810807561B561C6F81CA035623C
:10250000756230463EF00AFC08B1FEF7B2F9E663A8
:10251000B4631C4E1A48306077604020B060F560AC
:10252000C6F810807561B561F56135627562304637
:102530003EF0F4FB08B1FEF79CF9A663B4630022F9
:10254000052134203EF060FD34203EF049FD07B007
:10255000BDE8F08F303802404438024000040240A9
:102560004064024004350120B86402406435012013
:1025700040380240000002404060024044340120E4
:1025800070600240A43401207047FEE730B58DB082
:102590000024089409940A940B94009401940294E2
:1025A00003940494059406940794244822490160F6
:1025B0004FF480314160846001250561047680F824
:1025C0002040C4621E498162C460C56180F8304009
:1025D00045613EF057FA08B1FEF74BF90620089026
:1025E00009950A9408A91548FEF742FA08B1FEF7C2
:1025F00040F90A20009001950220049003200290E7
:102600004FF48010079006948DF815408DF8144013
:102610000394694609483EF0E3F808B1FEF729F94A
:102620000B200090694605483EF0DAF8002801D0FA
:10263000FEF71FF90DB030BD00200140F43001203D
:102640000100000F70B58CB00024089409940A941E
:102650000B940094019402940394049405940694BA
:10266000079420481E4901604FF48036466084601C
:102670000461047680F820400905C1624FF0606172
:102680008162C4600125C56180F8304045613EF03B
:10269000F9F908B1FEF7EDF80520089009950A94BC
:1026A00008A91048FEF7E4F908B1FEF7E2F80A209D
:1026B00000900195049502944FF4801007900696BF
:1026C0008DF815408DF814400394694605483EF096
:1026D00087F8002801D0FEF7CCF80CB070BD0000E0
:1026E000002101403C310120F0B587B00024029464
:1026F00003940494059406943848016841F0040159
:102700000160016801F004010191016841F080015C
:102710000160016801F080010191016841F001014F
:102720000160016801F001010191016841F00201BD
:102730000160016801F002010191016841F00801A6
:102740000160006800F008000190254E012251034D
:102750003046FFF7E5F8234F012204213846FFF702
:10276000DFF80022B1143846FFF7DAF84FF40050D2
:102770000290012503950494059402A93046FEF7C2
:10278000D5FF102002900394049402A93046FEF76E
:10279000CDFF41F20400029003950494059402A930
:1027A0003846FEF7C3FFE80302900394049402A99D
:1027B0000D48FEF7BBFF042002900394049502A984
:1027C0000A48FEF7B3FF082002900394049402A97C
:1027D0003846FEF7ABFF07B0F0BD000030380240CE
:1027E000000802400004024000000240000C0240C9
:1027F00010B50C480A4901600B4941600021816015
:10280000C16001610C2242618161C1613FF058FCED
:10281000002803D0BDE81040FEF72BB810BD000023
:10282000004C0040B433012080841E00FEE700000D
:102830007CB504460E461546334601220221204649
:1028400000953FF0A7FE28B1606D40F02000606564
:1028500003207CBD164800681821B0FBF1F0154933
:10286000B0FBF1F04FF47A71484301906068B0F525
:10287000827F0DD1334600228021204600953FF013
:1028800089FE98B1606D40F0200060650320E0E7AC
:1028900000BF019800B908E00198401E019020682F
:1028A0008068C0F3C0100028F3D100BF0020D0E73B
:1028B0000801002040420F00012045F0D7FCFBE753
:1028C00010B500BF502080F31188BFF34F8FBFF3C6
:1028D0006F8F00BF47F010FE18B14FF080500449D1
:1028E000086000BF002080F3118800BF10BD000009
:1028F00004ED00E00348006840F4700001490860FE
:102900007047000088ED00E00148FFF792BA000030
:102910006C33012030B501F00F05042404FA05F3EF
:10292000046A9C430462046A01F00F0502FA05F58B
:102930002C43046230BD000030B5026A056A25F000
:10294000010505624368846924F0700424F00304DF
:102950000D682C4322F002028D682A43104DA842D4
:1029600000D103E00F4DA84206D100BF22F00802BB
:10297000CD682A4322F00402094DA84202D0094D35
:10298000A84207D123F4807323F400734D692B43CD
:102990008D692B43436084614D684563026230BD9D
:1029A000000001400004014030B5026A056A25F0CC
:1029B000100505624368846924F4E04424F44074FB
:1029C0000D6844EA052422F020028D6842EA0512CF
:1029D000124DA84200D103E0114DA84207D100BF1B
:1029E00022F08002CD6842EA051222F040020B4D2F
:1029F000A84202D00A4DA84209D123F4806323F4EF
:102A000000634D6943EA85038D6943EA85034360AA
:102A100084614D688563026230BD000000000140A2
:102A20000004014030B5026A056A25F4807505622C
:102A30004368C46924F0700424F003040D682C4337
:102A400022F400728D6842EA0522124DA84200D19C
:102A500003E0114DA84207D100BF22F40062CD6807
:102A600042EA052222F480620A4DA84202D00A4DB1
:102A7000A84209D123F4805323F400534D6943EA5B
:102A800005138D6943EA05134360C4614D68C5634E
:102A9000026230BD000001400004014030B5036A0D
:102AA000056A25F4805505624468C26922F4E04253
:102AB00022F440720D6842EA052223F400538D6827
:102AC00043EA0533084DA84202D0084DA84204D17C
:102AD00024F480444D6944EA85144460C2614D6821
:102AE0000564036230BD00000000014000040140A5
:102AF00030B50B461446026A056A25F001050562E9
:102B0000816921F0F00141EA041122F00A021A431E
:102B10008161026230BD000010B50A48D0F85C1631
:102B2000002909D0084800680068C0F3001405486F
:102B300088470CB143F0C8F8BDE810400248FFF7E1
:102B4000B3BA0000041E0020B433012070B504465F
:102B5000A56B0020E8852846FFF7A5FA70BD70B583
:102B600006460025B46B20684069C0F3C01594F890
:102B70004100212805D125B10020E08420463FF006
:102B800022FF20684069C0F3801594F84200222893
:102B900005D125B10020E08520463FF0CEFE606CD7
:102BA00040F0100060642046FFF77DFA70BD000021
:102BB0002DE9F84F04462068006920F44050E16890
:102BC0000843216808612169A068084361690843D6
:102BD000E169084300902068C06849F20C618843AD
:102BE000009908432168C8602068406920F440705B
:102BF000A16908432168486176492068884203D06A
:102C000075492068884203D1FEF712FF814602E031
:102C10003EF000FB8146E069B0F5004F6CD1022028
:102C20006168A0FB015003461920A9FB0070014612
:102C30002A4638463DF056FA6421B0FBF1F04FEADF
:102C4000001A02206168A0FB01510B461920A9FB64
:102C500000712A4638463DF045FA834602206168F5
:102C6000A0FB015003461920A9FB00712A463846F3
:102C70003DF038FA6421B0FBF1F000EBC00101EB4C
:102C80000010ABEB8000322101EBC0006421B0FBEF
:102C9000F1F000F0F8000AEB400A02206168A0FBA6
:102CA000015003461920A9FB007001462A46384608
:102CB0003DF018FA834602206168A0FB01500346EC
:102CC0001920A9FB00712A4638463DF00BFA642111
:102CD000B0FBF1F000EBC00101EB0010ABEB8000AA
:102CE000322101EBC0006421B0FBF1F000F00700DD
:102CF0005044216888606AE004206168A0FB0150AC
:102D000003461920A9FB007001462A4638463DF0CB
:102D1000E9F9824604206168A0FB015003461920AE
:102D2000A9FB007001462A4638463DF0DBF96421D4
:102D3000B0FBF1F000EBC00101EB0010AAEB80004A
:102D4000322101EB00106421B0FBF1F000F0F00A39
:102D500004206168A0FB017003461920A9FB005103
:102D60003A4628463DF0BEF96421B0FBF1F00AEB8B
:102D7000001A04206168A0FB01510B461920A9FB31
:102D800000712A4638463DF0ADF98346042061685B
:102D9000A0FB015003461920A9FB007001462A46FA
:102DA00038463DF09FF96421B0FBF1F000EBC00123
:102DB00001EB0010ABEB8000322101EB001064212D
:102DC000B0FBF1F000F00F00504421688860BDE8CE
:102DD000F88F0000001001400014014077B581B069
:102DE000044615460298A062A58500206064222052
:102DF00084F842002C48E16BC8632C48E16B0864FE
:102E00002B48E16BC8640020E16B086502AE3268B4
:102E10002368191D2B46E06BFEF706FC38B1102025
:102E20006064202084F84200012004B070BD00BF1F
:102E300000200090206800680090206840680090A2
:102E400000BF00BF206970B100BF00BF21680C3116
:102E500051E8001F41F4807021680C3141E8000204
:102E6000002AF3D100BF00BF00BF2168143151E830
:102E7000001F41F001002168143141E80002002ADE
:102E8000F3D100BF00BF00BF2168143151E8001F1B
:102E900041F040002168143141E80002002AF3D1DA
:102EA00000BF0020C1E700006328040817290408B8
:102EB0005F2B0008014691F84100212828D188683D
:102EC000B0F5805F0BD1086948B90A6A1088C0F371
:102ED00008000B685860086A801C086205E00B6AED
:102EE000581C086218780B685860C88C401E80B265
:102EF000C88458B90868C06820F080000B68D860A2
:102F00000868C06840F040000B68D8600020704737
:102F10000220FCE72DE9F84304460D461746984683
:102F2000089E31E0701C70B33EF00CF8A0EB080076
:102F3000B04200D816B90320BDE8F8832068C06805
:102F400000F00400F8B1802D1ED0402D1CD0206868
:102F50000068C0F3C000B0B100BF0020009020683E
:102F60000068009020684068009000BF00BF2046C5
:102F70003FF0E3FC0820606400BF002084F84000BC
:102F800000BF0120D8E7FFE7206800682840A8427A
:102F900001D1012000E00020B842C3D00020CBE7DF
:102FA0000148FFF781B80000FC3301200FB4054B46
:102FB00010B503A9044A029800F0E2F810BC5DF8CD
:102FC00014FB00002754040878010020DFED020AFA
:102FD00080EEA00A704700000000000002E008C870
:102FE000121F08C1002AFAD170477047002001E083
:102FF00001C1121F002AFBD1704700002DE9FF5FBD
:1030000082B00021DDE90430020DDDF840B0034359
:1030100018D044F61050A2F2FF3242431514119812
:1030200001281FD0A5EB0B00401C5FEA000A4FF0FF
:1030300000064E4FDFF83891B046504615D5CAF11C
:10304000000413E0119801244AA3012801D16FEA7A
:103050000B010298119AC0E90031C0E9024206B0A2
:10306000BDE8F09FCBF10000DFE704460021404AB5
:10307000491842EB0450CDE9001012E0E00707D0F8
:1030800032463B46404649463DF0D8F880468946A0
:1030900032463B46104619463DF0D0F806460F46EC
:1030A0006410002CEAD1DDE90401DDE90023BAF166
:1030B000000F06DA3DF0C2F842464B463DF0BEF83E
:1030C00005E0FDF78FF942464B46FDF78BF90446C4
:1030D0000E460022284B3DF023F903D84FF0FF3075
:1030E000014607E00022254B20463146FDF7D3F884
:1030F000FDF7E7F9102409E0002C0ADB0A2200237F
:103100003CF0F0FF039B30321A55641E50EA010276
:10311000F2D1641C039AC4F111031444119A012AD8
:1031200003D0012208430DD10AE0084304D0002057
:103130004FF0110B119072E7A3EB0B056D1E0DE024
:103140005B4504DD4FF0000205F1010504E003DA00
:103150004FF00002A5F10105002AECD00298119968
:10316000C0E90231C0E9004579E7000000001440E1
:103170000000F03F300000000000F0430000E03F9E
:103180002DE9FF4F95B09A46884606460025EEE1A8
:10319000252877D100242746F94A0121039400E02D
:1031A000044316F8013F203B01FA03F01042F7D127
:1031B00030782A2811D06FF02F033078A0F1300238
:1031C000092A16D8039A44F0020402EB820203EBA8
:1031D00042021044761C0390EFE758F8042B039248
:1031E000002A03DA504244F40054039044F00204ED
:1031F000761C30782E2816D116F8010F44F00404FE
:103200002A280DD06FF02F023078A0F13003092B5F
:1032100009D807EB870302EB4303C718761CF3E7D3
:1032200058F8047B761C30786C280FD006DC4C28CC
:1032300017D068280DD06A2814D104E0742810D063
:103240007A280FD10DE044F400140AE044F480140D
:1032500001E044F440147278824202D104F58014F3
:10326000761C761C307866280BD013DC582877D073
:1032700009DC002875D04528F6D04628F4D0472828
:103280001AD193E118E0632835D0642879D06528F5
:1032900012D18BE1702873D008DC6728F1D069283F
:1032A0006FD06E280DD06F2806D1ACE073282CD0DB
:1032B000752874D0782853D05246179990476D1CC2
:1032C00054E1C4F30250022809D003280DD0D8F8E5
:1032D000001004280DD00D6008F1040846E1D8F86C
:1032E0000010EA17C1E90052F6E7D8F800100D8087
:1032F000F2E70D70F0E718F8041B8DF800100020BD
:103300008DF80100EB46012003E058F804BB4FF0B4
:10331000FF3061074FF0000102D40DE009F1010117
:103320008946B9420FDA8145F8DB1BF809100029FC
:10333000F4D108E009F1010189468142FADB1BF86A
:1033400009100029F6D103985346A0EB090721463E
:103350003846179A00F06EFA284400EB090507E09A
:1033600044E008E10DE01BF8010B52461799904725
:10337000B9F10109F7D2534621463846179AF2E0CF
:1033800039E00A21C4F302524FF0000B0091022AE7
:1033900006D058F8040BC117032A09D00AE023E02D
:1033A00008F1070020F00702F2E80201904605E06C
:1033B00000B2C117042A01D140B2C117002906DAB0
:1033C0000A460021404261EB02012D2202E0220563
:1033D00004D52B228DF80420012203E0E20701D05E
:1033E0002022F7E7914657E00A2100E010214FF034
:1033F000000B00910BE010214FF0000B44F004048F
:103400000827009103E008204FF0000B0090C4F360
:103410000252022A05D058F8040B0021032A08D0D2
:1034200008E008F1070020F00702F2E802019046E8
:1034300003E080B2042A00D1C0B24FF00009220795
:103440002AD53278702A07D0DDF800C08CF0100C35
:103450005CEA0B0C05D00EE040228DF8042001221E
:1034600008E050EA010306D030238DF804308DF8CF
:10347000052002229146009B83F0080353EA0B03C8
:103480000AD150EA010201D1620705D530228DF838
:1034900004204FF001097F1E3278582A04D039A247
:1034A0000C920CAA02920BE03BA2F9E75B46009A51
:1034B0003CF018FE0C9B9B5C029A521E0292137009
:1034C00050EA0102F2D1029804A9081A00F1200B77
:1034D000600702D524F4803400E001275F4502DD57
:1034E000A7EB0B0000E0002000EB0B01009003981D
:1034F0004944401A0390E00306D453462146179AE4
:10350000039800F097F90544002706E001A8524609
:10351000C05D179990476D1C7F1C4F45F6DBE0039B
:103520000CD553462146179A039800F083F90544B9
:1035300004E030205246179990476D1C0099481EB0
:1035400000900029F5DC08E00298029952460078C4
:10355000491C0291179990476D1CBBF10001ABF11A
:10356000010BF1DC5BE13FF029FD0544761C30786E
:1035700000287FF40DAE19B02846BDE8F08F00009A
:103580000928010030313233343536373839616239
:1035900063646566000000003031323334353637FD
:1035A000383941424344454600000000600700D4DA
:1035B000062708F1070020F00700F0E80223804604
:1035C00003F0004C5FEA0C0001D097A009E0200551
:1035D00001D596A005E0E00701D095A001E0AFF28B
:1035E0004C001390307823F0004365280CD006DCA3
:1035F000452809D046281DD047287FD13BE06628C2
:1036000018D067287AD136E00021112F01DB112074
:1036100000E0781CCDE9000104A90CA8FFF7EEFC3E
:10362000DDE90D010C9A4FF0000B07F10109109232
:1036300000914EE04FF000400097CDE9011004A941
:103640000CA8FFF7DBFCDDE90D020C9B0F994FF096
:10365000000B91461093009211B9791C00EB0109FF
:10366000B7EB090003D4C0F1FF3B07F10109A9EB57
:103670000700019042E0012F00DA01270021112FFD
:1036800001DD112000E03846CDE9000104A90CA8B5
:10369000FFF7B4FCDDE90D010C9A00914FF0000B2F
:1036A000B946109221070FD4009A4A4503DA914691
:1036B00001E0A9F10109B9F1010F05DD109AA9F1A5
:1036C0000101515C3029F4D0B84202DA10F1040F44
:1036D00003DA0121CDE9011010E0002803DC834466
:1036E000A9EB000102E0411C494500DD8946A0EB41
:1036F0000B00401C01904FF000400290200705D4C1
:103700000198484502DB4FF0FF30019000208DF812
:103710004B0002980DF14B07B0F1004F25D002206D
:103720000C902B200D90029800280CDA4042029059
:103730002D200D9007E00A210298FCF74FFD303153
:10374000029007F8011D0C99481E0C900029F2DC2C
:1037500002980028EFD1791E0D980870307800F09B
:10376000200040F0450007F8020D11A8C01BC01D45
:1037700002901398007800B1012000EB0901019834
:1037800001EBE071029801440398401A401E039037
:10379000E00306D453462146179A039800F04AF8EE
:1037A00005441398007818B15246179990476D1C3C
:1037B000E00323D553462146179A039800F03AF8C0
:1037C00005441BE0BBF1000F07DB0098584504DD02
:1037D0001098179910F80B0001E017993020524605
:1037E000904701980BF1010B401E05F10105019076
:1037F00004D12E205246179990476D1CB9F1000153
:10380000A9F10109DEDC05E017F8010B5246179912
:1038100090476D1C0299481E02900029F4DC534623
:103820002146179A03989EE62D0000002B00000009
:10383000200000002DE9F041044600251E46904678
:10384000C80301D5302700E02027880404D505E00F
:1038500041463846B0476D1C641EF9D52846BDE880
:10386000F081000030B504460D460823934200DD88
:10387000134600210AE0084800EB810090ED000AA1
:1038800004EB810080ED000A481CC1B29942F2DBD2
:103890002B70002030BD0000B814002010B5034686
:1038A000002018604FF4807008600448446D146074
:1038B000846D5460C06D9060002010BD1012002017
:1038C00010B5054843F0DCFF04460CB1207808B978
:1038D00002A010BD2046FCE7501300204A6F696E1D
:1038E000744D6F746F72000010B504F037FE00F570
:1038F0009D6010BD2DE9F84307460C4615461E464F
:1039000043F014F881462B46224649463846009635
:1039100002F0E6FC8046404642F057FABDE8F883E4
:1039200070B543F003F8054642F0B7F904460CB908
:10393000002070BD002C01DD0220FAE70820F8E726
:103940002DE9F05F07460D461646984642F0EEFF19
:1039500082462EB14FF6FF7000EA8500404502DD39
:103960000620BDE8F09F002413E038191FFA80FB01
:1039700006EB840204235146584603F074F981464D
:10398000B9F1000F03D0484642F01FFAE9E7601C86
:1039900084B2AC42E9DB0020E3E70000F0B5D5B02B
:1039A00004464FF6FF70844208D1134805F086F9AB
:1039B000114806F08FF9002055B0F0BD532C01DB03
:1039C0000420F9E7684605F079F908B10820F3E723
:1039D000684606F07FF9094800EB84052988064807
:1039E0000E18288869464718EA78394630463CF070
:1039F000EAFB0020E0E700005013002060C500084B
:103A00002DE9F84F0746884691469A46144800909B
:103A10000025002620E0B8191FFA80FBBBF1530FE8
:103A200002DB0420BDE8F88F0E4800EB8B04E07841
:103A30002844504501D90620F4E7E27809EB050156
:103A4000B4F800C0009B0CEB03003CF0BCFBE0783A
:103A5000284485B2701C86B24645DCDB0020E1E7D5
:103A60005013002060C500082DE9F0412DED048BB6
:103A70000546B0EE408AF0EE608AB0EE419A0C4600
:103A80000CB10020207004F069FD90F8DC040328DC
:103A900007D00CB1022020700320BDEC048BBDE8E0
:103AA000F081032D04DD0CB1032020700220F4E727
:103AB00042F03CFF0746B0EE491AF0EE680AB0EE5D
:103AC000480A384643F076FF064646B12CB1B01C92
:103AD00008B9012000E0032020700320DDE70DB1CC
:103AE000032D03D10221002006F0ECF8012D01D0B6
:103AF000032D03D10221012006F0E4F8022D01D0AC
:103B0000032D03D10221084606F0DCF806F0CAF8BE
:103B10000020C2E770B505460C4616462EB1032DAF
:103B200003DC012C01DB072C01DD022070BD3246D5
:103B30002146284606F002F808B10220F6E70020E8
:103B4000F4E72DE9F04104460E4617462FB1032C49
:103B500003DC012E01DB072E02DD0220BDE8F0812F
:103B6000012C01DC002504E0022C01D1012500E03C
:103B70000225284605F030FF032801D00320EDE799
:103B80003A463146204644F02FF908B10220E5E7D5
:103B90000020E3E770B504460D4616460CB105B1AA
:103BA0000EB9022070BD002005F016FF2070012024
:103BB00005F012FF2870022005F00EFF3070002083
:103BC000F0E72DE9F04104460D4604F0C7FC90F8FB
:103BD000DC04032802D00320BDE8F081022C01DCC4
:103BE000032D01DD0220F7E72946204606F06AF89A
:103BF000032D26D042F09AFE06464FF4CC7087592A
:103C0000394623462A4623B1012B04D0022B06D184
:103C100003E0002005E0042003E0082001E08C46DA
:103C20000AE000BF4FF00F0C0CFA00FC21EA0C0C6C
:103C300002FA00F84CEA080C67464FF4CC70875142
:103C400000BF06F02FF80020C6E72DE9FC47074625
:103C50000D461646FFF748FE0446182F7DD00FDCB0
:103C6000182F7BD2DFE807F02A2B2C2D2E2F30FACD
:103C7000FAFAFAFAFAFAFAFA3141515D848F99A800
:103C8000912F6CD010DC302F4CD006DC192F67D070
:103C90001B2F2BD01C2F61D16BE0322F36D0372F4A
:103CA00035D0902FF7D1AFE0A7F192000728D8D2F6
:103CB000DFE800F0ACADAEAFB0D4D00000BF00BFC5
:103CC00000BF00BF00BF00BFC9E0082E02DA062017
:103CD000BDE8FC87284602F0F1F984ED030A281DAF
:103CE00002F0ECF984ED020AB9E000BF082E01DA17
:103CF0000620EDE7284602F0E1F984ED030A281DCD
:103D000002F0DCF984ED040AA9E000BF00BF042E34
:103D100001DA0620DCE7284602F0D0F984ED020A39
:103D20009DE000BF142E01DA0620D1E7284602F0FC
:103D3000C5F984ED000A281D02F0C0F984ED010ADE
:103D400005F1080002F0BAF984ED050A05F10C004E
:103D500002F0B4F984ED060A03E03CE07EE054E0B2
:103D600048E005F1100002F0A9F984ED070A76E0B9
:103D700000BF042E01DA0620AAE7284602F09EF9C9
:103D800084ED010A6BE0042E01DA0620A0E7284644
:103D900002F094F984ED000A61E0082E01DA0620B1
:103DA00096E7284602F08AF984ED000A281D02F001
:103DB00085F984ED010A52E0082E01DA062087E732
:103DC000284602F07BF984ED000A281D02F076F9FE
:103DD00084ED020A43E0082E01DA062078E728463F
:103DE00002F06CF984ED010A281D02F067F984EDF8
:103DF000020A34E0042E01DA062069E7284602F0C0
:103E00005DF984ED020A2AE000BF00BF00BF00BFD9
:103E100000BF00BF012E01DA062059E7A7F18F008D
:103E200000F0FF0895F80090494640463FF06CFDD1
:103E300078B968463FF010FD9DF80000012801D1D7
:103E40000A2045E79DF80100032800D140E7022041
:103E50003EE704E000F0B4F9002039E700BF00BFFE
:103E6000384604F0D9FC002032E70000F0B587B0F6
:103E70000446207800EBC00000EB400027494518BD
:103E800000200690287D8DF818004FF6FF700590F1
:103E90000020049003900290288BADF80400A87EC7
:103EA0008DF806000021019801F039FA03AA05A94E
:103EB00006983FF05BFA0646288BADF80400A87E12
:103EC0008DF806000121019801F029FA288BADF840
:103ED0000400A87E8DF806000021019801F01FFA69
:103EE00002AA04A906983FF041FA0746288BADF8CC
:103EF0000400A87E8DF806000121019801F00FFA58
:103F000006B93FB1208B4FF6FF71884202D2208B59
:103F1000401C2083BDF8080007B0F0BDBCB5040804
:103F200030B587B00546287800EBC00000EB4000B4
:103F30002149441800200690207D8DF8180044F295
:103F4000010005900020049003900290208BADF8B2
:103F50000400A07E8DF806000021019801F0DFF931
:103F600003AA05A906983FF001FA208BADF80400DA
:103F7000A07E8DF806000121019801F0D0F9208B78
:103F8000ADF80400A07E8DF806000021019801F034
:103F9000C6F902AA04A906983FF0E8F9208BADF80B
:103FA0000400A07E8DF806000121019801F0B7F908
:103FB000BDF8080007B030BDBCB5040801460022BA
:103FC000002006E041FA00F303F001035A40431CCD
:103FD000D8B20F28F6DB1046704770B504464FF490
:103FE0008E60055900231A46194604F58A60A847D1
:103FF00070BD000001608A6842609FED060A80ED96
:10400000020A054A1060054A8A601346C1F838342E
:104010007047000000000000AC000020A934040834
:1040200010B53FF015FC044624B1206810B10448D7
:104030003FF04AFA0248103800F038F910BD00008D
:104040006410002010B50F480078072817D2DFE869
:1040500000F01604070A0D10130044F0B1FC10BD67
:1040600044F08AFDFBE744F0B1FEF8E706F048FAB9
:10407000F5E744F097FBF2E744F07CFAEFE7032022
:10408000EDE700005010002010B50D48007806281C
:1040900013D2DFE800F0120306090C0F06F044FB10
:1040A00010BD44F087F9FBE744F088FCF8E745F0E1
:1040B00015F8F5E706F030FBF2E70320F0E7000023
:1040C0008C10002070B52DED028B04460D46B0EE2D
:1040D000408A10480470001D3FF07CFC00200D4910
:1040E000886100210B48C1619FED0B0A80ED080A31
:1040F000062C0CD2DFE804F00B030405060700BF12
:1041000000BF00BF00BF0120BDEC028B70BD0020CE
:10411000FAE700008C10002000000000704710B586
:1041200006F0F8FA10BD0000024605480160054897
:1041300080ED000A012A01D1012070470020FCE730
:1041400060000020640000207047000010B50C489B
:104150000078012806D0022807D0032808D00428B8
:104160000CD108E044F028FC10BD06F0C3F9FBE7D1
:1041700044F01AF9F8E706F0D1FAF5E70320F3E77F
:104180007400002002460B4801600B4880ED000AD5
:104190000A480270012A06D0022A05D0032A04D058
:1041A000042A05D102E000BF00BF00BF0120704714
:1041B0000020FCE7780000207C0000207400002034
:1041C00010B509210A484173406938B1084840696F
:1041D000806818B106494969886880470020044909
:1041E000087300210248817300200149486110BD15
:1041F0003810002070B52DED028B05460C46B0EE50
:10420000408A18210648FBF7D2FF05480560446044
:1042100080ED028A002002490873BDEC028B70BD5C
:10422000381000202DE9F04104460D46012C15DB25
:10423000072C13DC012D11DB082D0FDC691E601E1D
:1042400001EBC00201260027304639463BF0ACFFA7
:10425000034B0CCB10431943014A03C2BDE8F08164
:1042600048000020014948737047000038100020C2
:10427000014948747047000038100020D0ED030A4F
:1042800070EE800AC0ED030A8168491C81607047A6
:10429000D0ED030A90ED020AB8EE401A80EE810AD2
:1042A00070470170002242607047000000210170D9
:1042B000416081609FED020A80ED030A70470000B3
:1042C0000000000002465068401C5060884201D245
:1042D000012070470020FCE770B505460E461446E5
:1042E0003078052821D006282ED194ED001AF0EE62
:1042F000410A94ED011AB0EE410A96F83410281DD7
:1043000043F032FD94ED011AF0EE410A94ED031AE8
:10431000B0EE410A96F8351005F1140043F024FD83
:1043200094ED010A85ED090A0FE094ED011AF0EE13
:10433000410A94ED031AB0EE410A96F8351005F1E2
:10434000140043F011FD00E000BF00BF70BD00008D
:10435000014609B900207047D1F88000012801D03A
:104360000020F8E7D1ED240A91ED250A9FED081A07
:10437000F4EEC10AF1EE10FA06D39FED061AB4EE80
:10438000C10AF1EE10FA01D20020E4E70120E2E7D1
:104390006F12833AACC5273710B52DED048B044658
:1043A000D4F88000804784ED010AC4ED020A84ED50
:1043B000031A94ED120AB0EE408A94ED130AF0EE5F
:1043C000408A94ED140AB0EE409AB4EEE88AF1EE19
:1043D00010FA0FDBB4EEC98AF1EE10FA0ADB94EDA5
:1043E000020AD4ED030A30EE200AB1EE400A84ED51
:1043F000010A1EE0F4EEC88AF1EE10FA0FDBF4EECB
:10440000C98AF1EE10FA0ADB94ED010AD4ED030A31
:1044100030EE200AB1EE400A84ED020A09E094ED84
:10442000010AD4ED020A30EE200AB1EE400A84ED12
:10443000030A94ED010AD4ED020AB6EE001A01EE69
:10444000600AD4ED030AB6EE001A01EE600ADFED51
:104450000C0A20EE200A84ED040A94ED020AD4ED41
:10446000030A30EE600ADFED070A20EE200ADFEDD6
:10447000040A20EE200A84ED050ABDEC048B10BD71
:10448000ABAA2A3FD7B35D3FF0B5ABB0044641F0CD
:1044900015FC05460DB92BB0F0BD1AA801F0A4FA21
:1044A00000B1F8E701AA1AA928463FF059FC0746CF
:1044B0003B4601AACA212046D4F86466B04700BF33
:1044C000E9E770B501F0EAFA04460CB9052070BDC1
:1044D000A5B20DB90120FAE72846F8E710B5044661
:1044E000216801F58F60D1F8D8244FF4807190478E
:1044F00010BD70B52DED028B04460D46B0EE408A1E
:10450000256084ED098A201D05F066FB04F1140086
:1045100005F062FBBDEC028B70BD10B50446201D9A
:1045200043F05BFC04F1140043F057FC10BD0000A5
:1045300010B52DED028B84B0044694ED020AD4ED43
:10454000030A20EE200AF7EE000A80EE801AB0EE91
:10455000418A04B103E060210FA045F021FC94EDF5
:104560000B0A20EE080A8DED010A94ED0C0A20EEEC
:10457000080A8DED020A94ED0D0A20EE080A8DED71
:10458000030A9DED010ADDED020A9DED031A04B058
:10459000BDEC028B10BD00002E2E5C2E2E5C2E2E4C
:1045A0005C557365725C446576696365735C6465CC
:1045B000765F6D6F746F725F70686173655F63754E
:1045C0007272656E742E630010B5044604B103E088
:1045D000952103A045F0E4FB94F9140010BD000000
:1045E0002E2E5C2E2E5C2E2E5C557365725C4465FF
:1045F00076696365735C6465765F61733530343703
:104600002E63000070B504460D4604B103E09B2103
:104610000FA045F0C5FB012D00DA03E09C210CA0A2
:1046200045F0BEFB28212046FBF7C1FD2570012087
:1046300020759FED100A84ED040A0F48E0610F48D1
:1046400020620F4860622046FFF76AFC608370BDFD
:104650002E2E5C2E2E5C2E2E5C557365725C44658E
:1046600076696365735C6465765F61733530343792
:104670002E63000000000000854600085941040830
:10468000C94500082DE9F0472DED028B0446204670
:10469000FFF7ECFB0546E5824FEAD538C5F38037D6
:1046A000C5F30D06C5F30E00FFF788FC8146C8452B
:1046B00001D0012000E0002020736773207B00B947
:1046C0005FB1E0894FF6FF71884202D2E089401C59
:1046D000E081BDEC028BBDE8F0870020E0816680C0
:1046E00000EE106AB8EE400ADFED130A20EE200A51
:1046F000DFED120A80EE201AB0EE418A84ED018AC5
:10470000D4ED040A78EE600AB0EE600A3EF010FEC6
:10471000B0EE408A94F91400401C48B9DFED060A57
:1047200070EEC80AB0EE600A3EF002FEB0EE408ABB
:1047300084ED028A00BFCCE70000B443000080464D
:1047400038B504460020009004B103E069211CA0A4
:1047500045F026FBD4F83406401CC4F8340694F81F
:10476000220528B9D4F83806401CC4F8380638BDEC
:1047700094F820056A4604F2235145F055FA20B119
:104780006FF00200C4F82406F1E7BDF80000A0B104
:1047900015480460D4F83C06401CC4F83C06BDF83B
:1047A0000010D4F840060844C4F84006BDF80020C4
:1047B00004F22351204641F0A9FA00BFD7E70000D8
:1047C0002E2E5C2E2E5C2E2E5C557365725C44651D
:1047D00076696365735C6465765F636F6D6D756E36
:1047E0005F756172742E6300D80000202DE9F041DE
:1047F00004460D4616461F4604B103E0832109A076
:1048000045F0CEFA94F8220508B9BDE8F0810F48CA
:1048100004603B4632462946204601F023FC00BF97
:10482000F3E700002E2E5C2E2E5C2E2E5C55736559
:10483000725C446576696365735C6465765F636F1B
:104840006D6D756E5F756172742E6300D800002007
:1048500070B504460D4604B103E03D2102A045F0C9
:104860009FFAC4F8505670BD2E2E5C2E2E5C2E2E54
:104870005C557365725C446576696365735C6465F9
:10488000765F636F6D6D756E5F756172742E630018
:1048900010B504460A2C00DB10BD00F011FD0249E2
:1048A00041F8240000BFF7E7E01C002010B50446E3
:1048B0000A2C00DB10BD00F003FD0E4951F8241056
:1048C000411A0C48283040F824102838D0ED1F0A2F
:1048D000283050F8240000EE100AB8EE400A20EE0E
:1048E000800A0448503000EB840080ED000A00BFCD
:1048F000E0E70000E01C00202DE9FC5F044688464C
:1049000016461D4604B103E0982127A045F048FA59
:10491000002020760DB1AE4201D2BDE8FC9FB8FB6D
:10492000F5F005FB108000B1F7E7B6FBF5F005FBED
:10493000106000B1F1E7C4F800806660A560B6FBC6
:10494000F5F0E0604FF000094FF0FF3A002715E066
:10495000A168206807FB010B01226946584640F018
:10496000A3F900B1D9E719490198884205D1009807
:10497000484501D38146BA4600BF7F1CE068B84273
:10498000E6D8BAF1000F04DBC4F810A0C4F8149004
:1049900002E0002020616061012020760C48206246
:1049A0000C48E06100BFB8E72E2E5C2E2E5C2E2E48
:1049B0005C557365725C446576696365735C6465B8
:1049C000765F666C6173682E630000004F544F4D34
:1049D0002D440408D94900082DE9F04704460E4645
:1049E00091461F4624B1B9F1000F01D0207E10B9C5
:1049F0000120BDE8F08706F0070008B10120F8E7C4
:104A0000A068A0F108080820A7FB0020921940F137
:104A100000000021B8EB0202814101D20120E8E749
:104A2000B7F5807F01D90120E3E76069451C0020CC
:104A3000144B45EA00011843134AC2E90010002054
:104A40000CE009EBC001D1E90032411CDFF838C0AD
:104A50000CEBC101C1E90032411C88B2B842F0DB65
:104A6000791C8AB20849206840F02CF98246BAF1D4
:104A7000000F01D00120BCE700202061656100BF6C
:104A8000B7E700004F544F4DD81400202DE9F047F0
:104A900004460F469246984604B103E04B211FA0FE
:104AA00045F07EF9207800EBC00101EB00102549AC
:104AB0004518B4F8029000264F4501D9484600E059
:104AC00038460746CA4501D9484600E05046824666
:104AD000C84501D9484600E040468046207918B9CB
:104AE0000020804682460746697D287D3A4600F0D0
:104AF00041FC0643A97D287D524600F03BFC06435D
:104B0000E97D287D424600F035FC0643A760C4F8E5
:104B10000CA0C4F810803046BDE8F0872E2E5C2E25
:104B20002E5C2E2E5C557365725C446576696365F8
:104B3000735C6465765F68616C665F627269646706
:104B4000652E6300FAB5040870B504460D4604B13D
:104B500003E0672104A045F023F90DB1012000E036
:104B60000020207170BD00002E2E5C2E2E5C2E2E9B
:104B70005C557365725C446576696365735C6465F6
:104B8000765F68616C665F6272696467652E630058
:104B90002DE9F041074607B103E03B2110A045F0A5
:104BA000FFF8387800EBC00101EB001016494418FB
:104BB000002500260EE004F11502915D207D00F035
:104BC00001FC054304F11502915D207D00F0BCFB62
:104BD0000543761C022EEEDD2846BDE8F08100007C
:104BE0002E2E5C2E2E5C2E2E5C557365725C4465F9
:104BF00076696365735C6465765F68616C665F6245
:104C000072696467652E6300FAB5040808B5064842
:104C1000818AADF80010807D8DF802000121009896
:104C200000F07DFB08BD0000C00000202DE9F04130
:104C300088B004460D4616461F4604B103E05E21C7
:104C40003DA045F0ADF806B103E05F213AA045F084
:104C5000A7F807B103E0602137A045F0A1F8012DC6
:104C600000DA03E0612134A045F09AF840F2DC411B
:104C70002046FBF79CFA3FF093FC257028463FF056
:104C80009FFC607002202076294604F11C003FF052
:104C900073FB05EB051000EB8001304800EB810051
:104CA00000F16C08D8ED020AB0EE600A04F11C00B5
:104CB000E16A884798F9041004F11C00626B904780
:104CC000617800230A2204F1400041F093F8142196
:104CD0006846FBF76CFA01208DF80000204804902C
:104CE000694604F55F7043F0B1F9294604F58A601E
:104CF0003FF0CAFBDFED1B0A9FED1B0A04F58F6036
:104D000000F0B8F8194A07CA05AB07C340F2D4400F
:104D100050F804C004F58F6005A90EC9E04766602D
:104D2000A76004F56D70D4E9011200F0EFFCFFF705
:104D30006DFF08B0BDE8F0812E2E5C2E2E5C2E2E6D
:104D40005C557365725C446576696365735C646524
:104D5000765F6D6F746F722E630000005013002039
:104D6000014A04086F12033A0000204290D0000864
:104D700010B5044604B103E0452109A045F010F840
:104D8000617820783FF042FE6061E178A0783FF0E2
:104D90003DFEA061D4E9051008444142E16110BD27
:104DA0002E2E5C2E2E5C2E2E5C557365725C446537
:104DB00076696365735C6465765F6D6F746F725F4F
:104DC00070686173655F63757272656E742E6300DF
:104DD00010B52DED028B04469FED190AB0EE408A06
:104DE00004B103E0542117A044F0DAFF216A60699E
:104DF000401A00EE100AB8EEC00ADFED110A20EEEC
:104E0000200A84ED0B0AA169606A081A00EE100AF4
:104E1000B8EEC00ADFED0A0A20EE200A84ED0C0A83
:104E2000E169A06A081A00EE100AB8EEC00ADFEDC8
:104E3000040A20EE200A84ED0D0ABDEC028B10BDA1
:104E40003333533A2E2E5C2E2E5C2E2E5C5573651A
:104E5000725C446576696365735C6465765F6D6FEB
:104E6000746F725F70686173655F63757272656E8F
:104E7000742E630010B52DED028B8AB00446F0EE5F
:104E8000408AB0EE608A04B103E09D2119A044F08D
:104E900087FFC4ED028A84ED038A9FED220A84ED28
:104EA000040A002007900890099007A807C8C4E9E1
:104EB00009122062002004900590069004A807C8FB
:104EC000C4E90F12A063002001900290039001A892
:104ED00007C8C4E91212606413482065134860656E
:104EE0001348A0651348E065134820660AB0BDEC7E
:104EF000028B10BD2E2E5C2E2E5C2E2E5C55736503
:104F0000725C446576696365735C6465765F6D6F3A
:104F1000746F725F70686173655F63757272656EDE
:104F2000742E63006666663F414704083D4F0008E3
:104F3000A5460408F5460408D14504083EB50446D4
:104F400004B103E08E2127A044F02AFF2046FFF79A
:104F50000FFF2046FFF73CFF2046FFF7E9FA8DEDF3
:104F6000000ACDED010A8DED021A94ED040ADDED83
:104F7000000A20EE200AD4ED040AB7EE001A71EE02
:104F8000600A94ED111A00EE810A84ED0E0A94ED88
:104F9000040ADDED010A20EE200AD4ED040AB7EE82
:104FA000001A71EE600A94ED121A00EE810A84ED87
:104FB0000F0A94ED040ADDED020A20EE200AD4ED7A
:104FC000040AB7EE001A71EE600A94ED131A00EEAF
:104FD000810A84ED100AD4E90F12A06BC4E9121201
:104FE00060643EBD2E2E5C2E2E5C2E2E5C557365AD
:104FF000725C446576696365735C6465765F6D6F4A
:10500000746F725F70686173655F63757272656EED
:10501000742E630010B5044604B103E0792103A0A7
:1050200044F0BEFE94ED1E0A10BD00002E2E5C2E34
:105030002E5C2E2E5C557365725C446576696365E3
:10504000735C6465765F706F7765725F6D6F6E69B4
:10505000746F722E6300000010B5044604B103E0C3
:10506000A92103A044F09CFE94ED200A10BD00008D
:105070002E2E5C2E2E5C2E2E5C557365725C446564
:1050800076696365735C6465765F706F7765725F80
:105090006D6F6E69746F722E6300000010B5044668
:1050A00004B103E0B5210CA044F07AFE9FED150A8F
:1050B000703484ED000A1448A0611448E06114487B
:1050C0002062144860621448A0621448E0621448E8
:1050D0002063703C10BD00002E2E5C2E2E5C2E2E08
:1050E0005C557365725C446576696365735C646581
:1050F000765F706F7765725F6D6F6E69746F722E19
:10510000630000003333D33F2551000815520008D7
:105110000D4904081550000841480408595000087A
:10512000FD4704082DE9F041044604B103E01D21C8
:105130001EA044F035FE002600202060002717E066
:1051400007EB470000EBC700234901EB4000057D5A
:10515000002D05DD042D03DA605D401C605503E081
:105160002B2112A044F01CFE284600F089F87F1C79
:10517000022FE5DB002084F82400012511E0605DAA
:1051800068B1625D201D00EBC50128463FF062FC5E
:10519000064394F82400615D084484F82400681CE8
:1051A000C5B2042DEBDB3046BDE8F0812E2E5C2E1F
:1051B0002E5C2E2E5C557365725C44657669636562
:1051C000735C6465765F706F7765725F6D6F6E6933
:1051D000746F722E6300000013B6040861EE803A0B
:1051E00042EE203A42EE813AB0EE633ADFED063A03
:1051F00063EE233A054890ED1E4ADFED054A44EE82
:10520000843AC0ED1E3A7047CDCC4C3D601D002065
:105210003333733F10B5044604B103E06B2105A09E
:1052200044F0BEFD20463FF02DFB20463FF098FBAA
:1052300010BD00002E2E5C2E2E5C2E2E5C5573654C
:10524000725C446576696365735C6465765F706FF4
:105250007765725F6D6F6E69746F722E6300000008
:10526000FA203FF073FD00BF0A203FF06FFD0348B6
:105270008069401C01498861F6E700001012002097
:1052800070B50446204640F05FF905460DB901208F
:1052900070BD0020FCE770B50546284640F054F983
:1052A00004460CB9012070BD2046FBF751FB206875
:1052B000406840F08000216848600020F3E700006B
:1052C0000148406870470000001000E0F0B5034658
:1052D0000C461CB112B103F0070008B10620F0BD66
:1052E00018463FF01DFCFF2801D10120F7E703EB32
:1052F000C205681E3FF014FCFF2801D10120EEE733
:10530000002008E003EBC0010E68496804EBC00709
:10531000C7E90061401C9042F4D30020DFE773B579
:105320000C469DF8000000F073FA054605B97CBDF7
:105330009DF8010040F014F9064622463146284601
:10534000FCF7EEFA00BFF2E72DE9F04106460C4605
:10535000304640F023F9054615B90120BDE8F0813B
:10536000204600F061FA0746394628463CF0BAFC70
:105370000020F3E72DE9F04107460E461446384673
:1053800040F00CF9054615B90120BDE8F081304622
:1053900000F04AFA10B92868446311E0304600F082
:1053A00043FA042802D12868846309E0304600F0FB
:1053B0003BFA082802D12868C46301E02868046425
:1053C0000020E2E72DE9F04106460C46304640F069
:1053D000E5F8054615B90120BDE8F081204600F04A
:1053E00023FA0746394628463CF00CFE0020F3E736
:1053F00010B506F047F910BD10B504460CB90120F0
:1054000010BD204604F080FE08B10120F8E700201E
:10541000F6E700002DE9F04782460E46174698460B
:10542000DDF82090002400250DE005EBC5001549AE
:1054300001EB800090F8200020B905EBC50001EBDE
:10544000800402E06D1C082DEFDB00BF14B90020C2
:10545000BDE8F087666038463FF082FC208100207E
:10546000E0604FEA980020614946204642F044FF40
:10547000E061E06908B90020EAE7012084F8200033
:10548000E069E5E7942400200146481C10B94FF07C
:10549000FF3070470846FCE701B582B0029844F03F
:1054A000DEF958B1BDF80900ADF804009DF80B0015
:1054B0008DF8060001210198FFF731FF0EBD2DE99F
:1054C000FF4381B00E4617469846DDF830909DF8B0
:1054D000040040F057F804461CB9012005B0BDE8AF
:1054E000F08301983FF075FC43463A46314620462A
:1054F000CDF800903CF056FA05460198FFF7CCFF36
:105500000DB10120EAE70020E8E770B506460C4639
:10551000304640F043F805460DB9012070BD2868BB
:10552000C06A401C20800020F8E770B50546284678
:1055300040F034F804460CB9012070BD2046FCF759
:105540009DFB0020F9E70000F8B50446204600F076
:1055500077F905460DB90120F8BD28680068C0F349
:105560000016E6B100BF0020009028680068009097
:1055700028684068009000BF00BF012004EBC40110
:10558000084A02F8210004EBC400114601EB800038
:105590000069401C04EBC40102EB8101086100209A
:1055A000DAE70000B42500202DE9F04105460E465B
:1055B00017469846284600F043F9044614B90120DE
:1055C000BDE8F08143463A46314620463CF0CAFDEC
:1055D00008B10120F4E70020F2E770B50446256821
:1055E0002846696A884770BD90ED010A704700003F
:1055F00070B505462C682046E1698847608800EE52
:10560000100AB8EE400ADFED040A60EE200A9FEDB2
:10561000031A80EE810A70BD0000B443000080468A
:1056200070B504460E462568314628462A6A9047DA
:1056300070BD016881ED040A70470000014691EDDC
:10564000000AB5EEC00AF1EE10FA41DD91ED000A54
:10565000DFED200AB4EEE00AF1EE10FA38D291ED57
:10566000010AB5EEC00AF1EE10FA31DD91ED010A42
:10567000DFED190AB4EEE00AF1EE10FA28D291ED4E
:10568000020AB5EEC00AF1EE10FA21DD91ED020A30
:10569000DFED100AB4EEE00AF1EE10FA18D291ED47
:1056A000030AB5EEC00AF1EE10FA11DD91ED030A1E
:1056B000DFED090AB4EEE00AF1EE10FA08D291ED3E
:1056C000040AB5EEC00AF1EE10FA01DD01207047C0
:1056D0000020FCE700007A440050C347014691EDEA
:1056E000100AB5EEC00AF1EE10FA0ADD91ED100ACB
:1056F000DFED050AB4EEE00AF1EE10FA01D2012066
:1057000070470020FCE7000000401C4670B50446CE
:105710000E4615469C212046FAF749FD44F8806F55
:1057200065600648A0600648E060064820610648BB
:1057300060610648A061803C70BD0000994300088C
:10574000C1A10008335C0408394F04081BAF0008EE
:105750002DE9F04106460F46154600242EB1D6F835
:10576000100410B1B5F5806F03DD4FF0FF30BDE8D8
:10577000F0811DB117B94FF0FF30F8E7A5222046A0
:10578000611C8CB21F490A545A222046611C8CB2FB
:105790001C490A542A0A2046611C8CB219490A5431
:1057A0002046611C8CB217490D5408468078401E73
:1057B000C9780844C2B22046611C8CB211490A540F
:1057C00035B108192A4639463AF0FDFC601984B211
:1057D000294638463EF0C4FB80462046611C8CB208
:1057E000084901F800804FEA18222046611C8CB25B
:1057F00004490A5421460348D6F810249047002053
:10580000B5E70000C005002090ED040A70470000D5
:105810000146082901DB00207047024850F82100AA
:10582000FAE70000F8B604080146052902DB4FF04C
:10583000FF307047014850F82100FAE754B70408D8
:105840000146072901DB00207047024850F821007B
:10585000FAE700001CD10008F0B593B005460E46EB
:105860002C68D02E04D0D12E32D0D22E73D150E05D
:1058700000200D900C9009900A900B900CB1A0693B
:1058800030B901223146284643F0BAFF13B0F0BDCB
:1058900009AA0CA90DA8A369984728B1032231468B
:1058A000284643F0ADFFF1E70EA80D9900F065FC26
:1058B0000FA80C9900F061FC09A807C810AB07C33A
:1058C00014230EAA3146284643F0AAFF0020DDE744
:1058D00024B1E06910B1E069804700E0002007468C
:1058E00000200F901090119012902FB90122314694
:1058F000284643F085FFC9E70F2239460FA8FAF77B
:1059000061FC10230FAA3146284643F089FF00208E
:10591000BCE7442102A8FAF74AFC24B1606810B140
:1059200002A8616888479DF848008DF8000010982B
:1059300081B20DF1010000F014FC00210DF1030013
:1059400000F01BFC07236A463146284643F068FFF7
:1059500000209BE7FFE701223146284643F050FF35
:1059600094E7000010B53EF0EFFC02F093FD0F4805
:10597000FFF794FB0D48D0F8881088479FED0C0A7C
:1059800002F0F0FD0B480C49C1F8940202F0E6FD6C
:105990000949C1F898020948C1F89C020348C1F8B6
:1059A000A0020748C1F8A40210BD0000601D00203D
:1059B00000401C46E01C0020101200209401002032
:1059C000041E00204FF4FA703FF0C0F900BF4FF4FE
:1059D0007A703FF0BBF90348C069401C0149C861B7
:1059E000F5E70000101200200146284A09B90320FB
:1059F000704792ED170A243101ED090A92ED180A59
:105A000001ED080A92ED200A01ED070A92ED070A5E
:105A100001ED060A92ED080A01ED050A92ED020A6F
:105A200001ED040A92ED030A01ED030A92ED040A66
:105A300001ED020A92ED1C0A01ED010A92ED1D0A28
:105A400081ED000A92ED220A81ED010A92ED230A0E
:105A500081ED020A906DC86092ED150A81ED040A8D
:105A6000D2F894004861982080588861907808772F
:105A7000D0784877107988772439107808B10120D8
:105A800000E0002081F843000020B1E77012002000
:105A900001480078704700001C0000200148008881
:105AA000704700002000002010B51148006828B998
:105AB000012108463FF06DF90D4908600C48006867
:105AC00020B100210A4800683FF070F90021094820
:105AD0003EF064FB40F0E8F8044606482146D0F862
